{
  "contractName": "ZombieOwnership",
  "abi": [
    {
      "anonymous": false,
      "inputs": [
        {
          "indexed": true,
          "internalType": "address",
          "name": "_owner",
          "type": "address"
        },
        {
          "indexed": true,
          "internalType": "address",
          "name": "_approved",
          "type": "address"
        },
        {
          "indexed": true,
          "internalType": "uint256",
          "name": "_tokenId",
          "type": "uint256"
        }
      ],
      "name": "Approval",
      "type": "event"
    },
    {
      "anonymous": false,
      "inputs": [
        {
          "indexed": false,
          "internalType": "uint256",
          "name": "zombieId",
          "type": "uint256"
        },
        {
          "indexed": false,
          "internalType": "string",
          "name": "name",
          "type": "string"
        },
        {
          "indexed": false,
          "internalType": "uint256",
          "name": "dna",
          "type": "uint256"
        }
      ],
      "name": "NewZombie",
      "type": "event"
    },
    {
      "anonymous": false,
      "inputs": [
        {
          "indexed": true,
          "internalType": "address",
          "name": "previousOwner",
          "type": "address"
        },
        {
          "indexed": true,
          "internalType": "address",
          "name": "newOwner",
          "type": "address"
        }
      ],
      "name": "OwnershipTransferred",
      "type": "event"
    },
    {
      "anonymous": false,
      "inputs": [
        {
          "indexed": true,
          "internalType": "address",
          "name": "_from",
          "type": "address"
        },
        {
          "indexed": true,
          "internalType": "address",
          "name": "_to",
          "type": "address"
        },
        {
          "indexed": true,
          "internalType": "uint256",
          "name": "_tokenId",
          "type": "uint256"
        }
      ],
      "name": "Transfer",
      "type": "event"
    },
    {
      "inputs": [
        {
          "internalType": "uint256",
          "name": "_zombieId",
          "type": "uint256"
        },
        {
          "internalType": "uint256",
          "name": "_targetId",
          "type": "uint256"
        }
      ],
      "name": "attack",
      "outputs": [],
      "stateMutability": "nonpayable",
      "type": "function"
    },
    {
      "inputs": [
        {
          "internalType": "uint256",
          "name": "_zombieId",
          "type": "uint256"
        },
        {
          "internalType": "uint256",
          "name": "_newDna",
          "type": "uint256"
        }
      ],
      "name": "changeDna",
      "outputs": [],
      "stateMutability": "nonpayable",
      "type": "function"
    },
    {
      "inputs": [
        {
          "internalType": "uint256",
          "name": "_zombieId",
          "type": "uint256"
        },
        {
          "internalType": "string",
          "name": "_newName",
          "type": "string"
        }
      ],
      "name": "changeName",
      "outputs": [],
      "stateMutability": "nonpayable",
      "type": "function"
    },
    {
      "inputs": [
        {
          "internalType": "string",
          "name": "_name",
          "type": "string"
        }
      ],
      "name": "createRandomZombie",
      "outputs": [],
      "stateMutability": "nonpayable",
      "type": "function"
    },
    {
      "inputs": [
        {
          "internalType": "uint256",
          "name": "_zombieId",
          "type": "uint256"
        },
        {
          "internalType": "uint256",
          "name": "_kittyId",
          "type": "uint256"
        }
      ],
      "name": "feedOnKitty",
      "outputs": [],
      "stateMutability": "nonpayable",
      "type": "function"
    },
    {
      "inputs": [
        {
          "internalType": "address",
          "name": "_owner",
          "type": "address"
        }
      ],
      "name": "getZombiesByOwner",
      "outputs": [
        {
          "internalType": "uint256[]",
          "name": "",
          "type": "uint256[]"
        }
      ],
      "stateMutability": "view",
      "type": "function",
      "constant": true
    },
    {
      "inputs": [
        {
          "internalType": "uint256",
          "name": "_zombieId",
          "type": "uint256"
        }
      ],
      "name": "levelUp",
      "outputs": [],
      "stateMutability": "payable",
      "type": "function",
      "payable": true
    },
    {
      "inputs": [],
      "name": "owner",
      "outputs": [
        {
          "internalType": "address",
          "name": "",
          "type": "address"
        }
      ],
      "stateMutability": "view",
      "type": "function",
      "constant": true
    },
    {
      "inputs": [],
      "name": "renounceOwnership",
      "outputs": [],
      "stateMutability": "nonpayable",
      "type": "function"
    },
    {
      "inputs": [
        {
          "internalType": "address",
          "name": "_address",
          "type": "address"
        }
      ],
      "name": "setKittyContractAddress",
      "outputs": [],
      "stateMutability": "nonpayable",
      "type": "function"
    },
    {
      "inputs": [
        {
          "internalType": "uint256",
          "name": "_fee",
          "type": "uint256"
        }
      ],
      "name": "setLevelUpFee",
      "outputs": [],
      "stateMutability": "nonpayable",
      "type": "function"
    },
    {
      "inputs": [
        {
          "internalType": "address",
          "name": "newOwner",
          "type": "address"
        }
      ],
      "name": "transferOwnership",
      "outputs": [],
      "stateMutability": "nonpayable",
      "type": "function"
    },
    {
      "inputs": [],
      "name": "withdraw",
      "outputs": [],
      "stateMutability": "nonpayable",
      "type": "function"
    },
    {
      "inputs": [
        {
          "internalType": "uint256",
          "name": "",
          "type": "uint256"
        }
      ],
      "name": "zombieToOwner",
      "outputs": [
        {
          "internalType": "address",
          "name": "",
          "type": "address"
        }
      ],
      "stateMutability": "view",
      "type": "function",
      "constant": true
    },
    {
      "inputs": [
        {
          "internalType": "uint256",
          "name": "",
          "type": "uint256"
        }
      ],
      "name": "zombies",
      "outputs": [
        {
          "internalType": "string",
          "name": "name",
          "type": "string"
        },
        {
          "internalType": "uint256",
          "name": "dna",
          "type": "uint256"
        },
        {
          "internalType": "uint32",
          "name": "level",
          "type": "uint32"
        },
        {
          "internalType": "uint32",
          "name": "readyTime",
          "type": "uint32"
        },
        {
          "internalType": "uint16",
          "name": "winCount",
          "type": "uint16"
        },
        {
          "internalType": "uint16",
          "name": "lossCount",
          "type": "uint16"
        }
      ],
      "stateMutability": "view",
      "type": "function",
      "constant": true
    },
    {
      "inputs": [
        {
          "internalType": "address",
          "name": "_owner",
          "type": "address"
        }
      ],
      "name": "balanceOf",
      "outputs": [
        {
          "internalType": "uint256",
          "name": "_balance",
          "type": "uint256"
        }
      ],
      "stateMutability": "view",
      "type": "function",
      "constant": true
    },
    {
      "inputs": [
        {
          "internalType": "uint256",
          "name": "_tokenId",
          "type": "uint256"
        }
      ],
      "name": "ownerOf",
      "outputs": [
        {
          "internalType": "address",
          "name": "_owner",
          "type": "address"
        }
      ],
      "stateMutability": "view",
      "type": "function",
      "constant": true
    },
    {
      "inputs": [
        {
          "internalType": "address",
          "name": "_from",
          "type": "address"
        },
        {
          "internalType": "address",
          "name": "_to",
          "type": "address"
        },
        {
          "internalType": "uint256",
          "name": "_tokenId",
          "type": "uint256"
        }
      ],
      "name": "transferFrom",
      "outputs": [],
      "stateMutability": "payable",
      "type": "function",
      "payable": true
    },
    {
      "inputs": [
        {
          "internalType": "address",
          "name": "_approved",
          "type": "address"
        },
        {
          "internalType": "uint256",
          "name": "_tokenId",
          "type": "uint256"
        }
      ],
      "name": "approve",
      "outputs": [],
      "stateMutability": "payable",
      "type": "function",
      "payable": true
    },
    {
      "inputs": [
        {
          "internalType": "uint256",
          "name": "_tokenId",
          "type": "uint256"
        }
      ],
      "name": "takeOwnership",
      "outputs": [],
      "stateMutability": "nonpayable",
      "type": "function"
    }
  ],
  "bytecode": "0x60806040526010600155600154600a6200001a9190620002c6565b6002556201518060035566038d7ea4c6800060085560006009556046600a553480156200004657600080fd5b50620000676200005b6200006d60201b60201c565b6200007560201b60201c565b62000317565b600033905090565b60008060009054906101000a900473ffffffffffffffffffffffffffffffffffffffff169050816000806101000a81548173ffffffffffffffffffffffffffffffffffffffff021916908373ffffffffffffffffffffffffffffffffffffffff1602179055508173ffffffffffffffffffffffffffffffffffffffff168173ffffffffffffffffffffffffffffffffffffffff167f8be0079c531659141344cd1fd0a4f28419497f9722a3daafe3b4186f6b6457e060405160405180910390a35050565b7f4e487b7100000000000000000000000000000000000000000000000000000000600052601160045260246000fd5b60008160011c9050919050565b6000808291508390505b6001851115620001c7578086048111156200019f576200019e62000139565b5b6001851615620001af5780820291505b8081029050620001bf8562000168565b94506200017f565b94509492505050565b600082620001e25760019050620002b5565b81620001f25760009050620002b5565b81600181146200020b576002811462000216576200024c565b6001915050620002b5565b60ff8411156200022b576200022a62000139565b5b8360020a91508482111562000245576200024462000139565b5b50620002b5565b5060208310610133831016604e8410600b8410161715620002865782820a90508381111562000280576200027f62000139565b5b620002b5565b62000295848484600162000175565b92509050818404811115620002af57620002ae62000139565b5b81810290505b9392505050565b6000819050919050565b6000620002d382620002bc565b9150620002e083620002bc565b92506200030f7fffffffffffffffffffffffffffffffffffffffffffffffffffffffffffffffff8484620001d0565b905092915050565b61292480620003276000396000f3fe60806040526004361061011f5760003560e01c80636352211e116100a0578063b2e6ceeb11610064578063b2e6ceeb146103ab578063c39cbef1146103d4578063ccf670f8146103fd578063e1fa763814610426578063f2fde38b1461044f5761011f565b80636352211e146102c657806370a0823114610303578063715018a6146103405780637bff0a01146103575780638da5cb5b146103805761011f565b80633ccfd60b116100e75780633ccfd60b146101e35780634412e104146101fa578063528b7b8f146102375780635f4623f1146102745780635faf28801461029d5761011f565b8063095ea7b3146101245780630ce90ec21461014057806317a7f4cc1461015c5780632052465e1461018557806323b872dd146101c7575b600080fd5b61013e60048036038101906101399190611d6b565b610478565b005b61015a60048036038101906101559190611dab565b610596565b005b34801561016857600080fd5b50610183600480360381019061017e9190611dd8565b61060b565b005b34801561019157600080fd5b506101ac60048036038101906101a79190611dab565b610738565b6040516101be96959493929190611efc565b60405180910390f35b6101e160048036038101906101dc9190611f64565b610848565b005b3480156101ef57600080fd5b506101f861092c565b005b34801561020657600080fd5b50610221600480360381019061021c9190611fb7565b610a15565b60405161022e91906120a2565b60405180910390f35b34801561024357600080fd5b5061025e60048036038101906102599190611dab565b610b68565b60405161026b91906120d3565b60405180910390f35b34801561028057600080fd5b5061029b60048036038101906102969190611fb7565b610b9b565b005b3480156102a957600080fd5b506102c460048036038101906102bf9190611dd8565b610c5b565b005b3480156102d257600080fd5b506102ed60048036038101906102e89190611dab565b610d43565b6040516102fa91906120d3565b60405180910390f35b34801561030f57600080fd5b5061032a60048036038101906103259190611fb7565b610d80565b60405161033791906120ee565b60405180910390f35b34801561034c57600080fd5b50610355610dc9565b005b34801561036357600080fd5b5061037e6004803603810190610379919061223e565b610e51565b005b34801561038c57600080fd5b50610395610ed2565b6040516103a291906120d3565b60405180910390f35b3480156103b757600080fd5b506103d260048036038101906103cd9190611dab565b610efb565b005b3480156103e057600080fd5b506103fb60048036038101906103f69190612287565b610f82565b005b34801561040957600080fd5b50610424600480360381019061041f9190611dab565b61107a565b005b34801561043257600080fd5b5061044d60048036038101906104489190611dd8565b611100565b005b34801561045b57600080fd5b5061047660048036038101906104719190611fb7565b611361565b005b806005600082815260200190815260200160002060009054906101000a900473ffffffffffffffffffffffffffffffffffffffff1673ffffffffffffffffffffffffffffffffffffffff163373ffffffffffffffffffffffffffffffffffffffff16146104e457600080fd5b82600b600084815260200190815260200160002060006101000a81548173ffffffffffffffffffffffffffffffffffffffff021916908373ffffffffffffffffffffffffffffffffffffffff160217905550818373ffffffffffffffffffffffffffffffffffffffff163373ffffffffffffffffffffffffffffffffffffffff167f8c5be1e5ebec7d5bd14f71427d1e84f3dd0314c0f7b2291e5b200ac8c7c3b92560405160405180910390a4505050565b60085434146105a457600080fd5b600481815481106105b8576105b76122e3565b5b9060005260206000209060030201600201600081819054906101000a900463ffffffff16809291906105e990612341565b91906101000a81548163ffffffff021916908363ffffffff1602179055505050565b6000600760009054906101000a900473ffffffffffffffffffffffffffffffffffffffff1673ffffffffffffffffffffffffffffffffffffffff1663e98b7f4d836040518263ffffffff1660e01b815260040161066891906120ee565b6101406040518083038186803b15801561068157600080fd5b505afa158015610695573d6000803e3d6000fd5b505050506040513d601f19601f820116820180604052508101906106b991906123bb565b9091929394959697985090919293949596975090919293949596509091929394955090919293945090919293509091925090915090508091505061073383826040518060400160405280600581526020017f6b69747479000000000000000000000000000000000000000000000000000000815250611459565b505050565b6004818154811061074857600080fd5b906000526020600020906003020160009150905080600001805461076b906124c9565b80601f0160208091040260200160405190810160405280929190818152602001828054610797906124c9565b80156107e45780601f106107b9576101008083540402835291602001916107e4565b820191906000526020600020905b8154815290600101906020018083116107c757829003601f168201915b5050505050908060010154908060020160009054906101000a900463ffffffff16908060020160049054906101000a900463ffffffff16908060020160089054906101000a900461ffff169080600201600a9054906101000a900461ffff16905086565b3373ffffffffffffffffffffffffffffffffffffffff166005600083815260200190815260200160002060009054906101000a900473ffffffffffffffffffffffffffffffffffffffff1673ffffffffffffffffffffffffffffffffffffffff16148061091357503373ffffffffffffffffffffffffffffffffffffffff16600b600083815260200190815260200160002060009054906101000a900473ffffffffffffffffffffffffffffffffffffffff1673ffffffffffffffffffffffffffffffffffffffff16145b61091c57600080fd5b6109278383836115f2565b505050565b6109346117d0565b73ffffffffffffffffffffffffffffffffffffffff16610952610ed2565b73ffffffffffffffffffffffffffffffffffffffff16146109a8576040517f08c379a000000000000000000000000000000000000000000000000000000000815260040161099f90612547565b60405180910390fd5b60006109b2610ed2565b90508073ffffffffffffffffffffffffffffffffffffffff166108fc3073ffffffffffffffffffffffffffffffffffffffff16319081150290604051600060405180830381858888f19350505050158015610a11573d6000803e3d6000fd5b5050565b60606000600660008473ffffffffffffffffffffffffffffffffffffffff1673ffffffffffffffffffffffffffffffffffffffff1681526020019081526020016000205467ffffffffffffffff811115610a7257610a71612113565b5b604051908082528060200260200182016040528015610aa05781602001602082028036833780820191505090505b5090506000805b600480549050811015610b5d578473ffffffffffffffffffffffffffffffffffffffff166005600083815260200190815260200160002060009054906101000a900473ffffffffffffffffffffffffffffffffffffffff1673ffffffffffffffffffffffffffffffffffffffff161415610b4a5780838381518110610b2f57610b2e6122e3565b5b6020026020010181815250508180610b4690612567565b9250505b8080610b5590612567565b915050610aa7565b508192505050919050565b60056020528060005260406000206000915054906101000a900473ffffffffffffffffffffffffffffffffffffffff1681565b610ba36117d0565b73ffffffffffffffffffffffffffffffffffffffff16610bc1610ed2565b73ffffffffffffffffffffffffffffffffffffffff1614610c17576040517f08c379a0000000000000000000000000000000000000000000000000000000008152600401610c0e90612547565b60405180910390fd5b80600760006101000a81548173ffffffffffffffffffffffffffffffffffffffff021916908373ffffffffffffffffffffffffffffffffffffffff16021790555050565b6014828160048281548110610c7357610c726122e3565b5b906000526020600020906003020160020160009054906101000a900463ffffffff1663ffffffff161015610ca657600080fd5b836005600082815260200190815260200160002060009054906101000a900473ffffffffffffffffffffffffffffffffffffffff1673ffffffffffffffffffffffffffffffffffffffff163373ffffffffffffffffffffffffffffffffffffffff1614610d1257600080fd5b8360048681548110610d2757610d266122e3565b5b9060005260206000209060030201600101819055505050505050565b60006005600083815260200190815260200160002060009054906101000a900473ffffffffffffffffffffffffffffffffffffffff169050919050565b6000600660008373ffffffffffffffffffffffffffffffffffffffff1673ffffffffffffffffffffffffffffffffffffffff168152602001908152602001600020549050919050565b610dd16117d0565b73ffffffffffffffffffffffffffffffffffffffff16610def610ed2565b73ffffffffffffffffffffffffffffffffffffffff1614610e45576040517f08c379a0000000000000000000000000000000000000000000000000000000008152600401610e3c90612547565b60405180910390fd5b610e4f60006117d8565b565b6000600660003373ffffffffffffffffffffffffffffffffffffffff1673ffffffffffffffffffffffffffffffffffffffff1681526020019081526020016000205414610e9d57600080fd5b6000610ea88261189c565b9050606481610eb791906125df565b81610ec29190612610565b9050610ece82826118e1565b5050565b60008060009054906101000a900473ffffffffffffffffffffffffffffffffffffffff16905090565b3373ffffffffffffffffffffffffffffffffffffffff16600b600083815260200190815260200160002060009054906101000a900473ffffffffffffffffffffffffffffffffffffffff1673ffffffffffffffffffffffffffffffffffffffff1614610f6657600080fd5b6000610f7182610d43565b9050610f7e8133846115f2565b5050565b6002828160048281548110610f9a57610f996122e3565b5b906000526020600020906003020160020160009054906101000a900463ffffffff1663ffffffff161015610fcd57600080fd5b836005600082815260200190815260200160002060009054906101000a900473ffffffffffffffffffffffffffffffffffffffff1673ffffffffffffffffffffffffffffffffffffffff163373ffffffffffffffffffffffffffffffffffffffff161461103957600080fd5b836004868154811061104e5761104d6122e3565b5b90600052602060002090600302016000019080519060200190611072929190611c20565b505050505050565b6110826117d0565b73ffffffffffffffffffffffffffffffffffffffff166110a0610ed2565b73ffffffffffffffffffffffffffffffffffffffff16146110f6576040517f08c379a00000000000000000000000000000000000000000000000000000000081526004016110ed90612547565b60405180910390fd5b8060088190555050565b816005600082815260200190815260200160002060009054906101000a900473ffffffffffffffffffffffffffffffffffffffff1673ffffffffffffffffffffffffffffffffffffffff163373ffffffffffffffffffffffffffffffffffffffff161461116c57600080fd5b600060048481548110611182576111816122e3565b5b906000526020600020906003020190506000600484815481106111a8576111a76122e3565b5b9060005260206000209060030201905060006111c46064611b17565b9050600a5481116112d55782600201600881819054906101000a900461ffff16809291906111f190612644565b91906101000a81548161ffff021916908361ffff1602179055505082600201600081819054906101000a900463ffffffff168092919061123090612341565b91906101000a81548163ffffffff021916908363ffffffff1602179055505081600201600a81819054906101000a900461ffff168092919061127190612644565b91906101000a81548161ffff021916908361ffff160217905550506112d08683600101546040518060400160405280600681526020017f7a6f6d6269650000000000000000000000000000000000000000000000000000815250611459565b611359565b82600201600a81819054906101000a900461ffff16809291906112f790612644565b91906101000a81548161ffff021916908361ffff1602179055505081600201600881819054906101000a900461ffff168092919061133490612644565b91906101000a81548161ffff021916908361ffff1602179055505061135883611b73565b5b505050505050565b6113696117d0565b73ffffffffffffffffffffffffffffffffffffffff16611387610ed2565b73ffffffffffffffffffffffffffffffffffffffff16146113dd576040517f08c379a00000000000000000000000000000000000000000000000000000000081526004016113d490612547565b60405180910390fd5b600073ffffffffffffffffffffffffffffffffffffffff168173ffffffffffffffffffffffffffffffffffffffff16141561144d576040517f08c379a0000000000000000000000000000000000000000000000000000000008152600401611444906126e1565b60405180910390fd5b611456816117d8565b50565b826005600082815260200190815260200160002060009054906101000a900473ffffffffffffffffffffffffffffffffffffffff1673ffffffffffffffffffffffffffffffffffffffff163373ffffffffffffffffffffffffffffffffffffffff16146114c557600080fd5b6000600485815481106114db576114da6122e3565b5b906000526020600020906003020190506114f481611ba6565b6114fd57600080fd5b6002548461150b91906125df565b9350600060028583600101546115219190612701565b61152b9190612757565b90507f8d53323b21b9f304546f6d3e61cde865451064d614aa4912f395b755a9d8cad98460405160200161155f91906127c4565b6040516020818303038152906040528051906020012014156115a257606360648261158a91906125df565b826115959190612610565b61159f9190612701565b90505b6115e16040518060400160405280600681526020017f4e6f4e616d650000000000000000000000000000000000000000000000000000815250826118e1565b6115ea82611b73565b505050505050565b6116456001600660008573ffffffffffffffffffffffffffffffffffffffff1673ffffffffffffffffffffffffffffffffffffffff16815260200190815260200160002054611bcd90919063ffffffff16565b600660008473ffffffffffffffffffffffffffffffffffffffff1673ffffffffffffffffffffffffffffffffffffffff168152602001908152602001600020819055506116db6001600660003373ffffffffffffffffffffffffffffffffffffffff1673ffffffffffffffffffffffffffffffffffffffff16815260200190815260200160002054611bf990919063ffffffff16565b600660003373ffffffffffffffffffffffffffffffffffffffff1673ffffffffffffffffffffffffffffffffffffffff16815260200190815260200160002081905550816005600083815260200190815260200160002060006101000a81548173ffffffffffffffffffffffffffffffffffffffff021916908373ffffffffffffffffffffffffffffffffffffffff160217905550808273ffffffffffffffffffffffffffffffffffffffff168473ffffffffffffffffffffffffffffffffffffffff167fddf252ad1be2c89b69c2b068fc378daa952ba7f163c4a11628f55a4df523b3ef60405160405180910390a4505050565b600033905090565b60008060009054906101000a900473ffffffffffffffffffffffffffffffffffffffff169050816000806101000a81548173ffffffffffffffffffffffffffffffffffffffff021916908373ffffffffffffffffffffffffffffffffffffffff1602179055508173ffffffffffffffffffffffffffffffffffffffff168173ffffffffffffffffffffffffffffffffffffffff167f8be0079c531659141344cd1fd0a4f28419497f9722a3daafe3b4186f6b6457e060405160405180910390a35050565b600080826040516020016118b091906127c4565b6040516020818303038152906040528051906020012060001c9050600254816118d991906125df565b915050919050565b60046040518060c00160405280848152602001838152602001600163ffffffff168152602001600354426119159190612701565b63ffffffff168152602001600061ffff168152602001600061ffff1681525090806001815401808255809150506001900390600052602060002090600302016000909190919091506000820151816000019080519060200190611979929190611c20565b506020820151816001015560408201518160020160006101000a81548163ffffffff021916908363ffffffff16021790555060608201518160020160046101000a81548163ffffffff021916908363ffffffff16021790555060808201518160020160086101000a81548161ffff021916908361ffff16021790555060a082015181600201600a6101000a81548161ffff021916908361ffff160217905550505060006001600480549050611a2e9190612610565b9050336005600083815260200190815260200160002060006101000a81548173ffffffffffffffffffffffffffffffffffffffff021916908373ffffffffffffffffffffffffffffffffffffffff160217905550600660003373ffffffffffffffffffffffffffffffffffffffff1673ffffffffffffffffffffffffffffffffffffffff1681526020019081526020016000206000815480929190611ad290612567565b91905055507f88f026aacbbecc90c18411df4b1185fd8d9be2470f1962f192bf84a27d0704b7818484604051611b0a939291906127db565b60405180910390a1505050565b600060096000815480929190611b2c90612567565b9190505550814233600954604051602001611b4993929190612882565b6040516020818303038152906040528051906020012060001c611b6c91906125df565b9050919050565b60035442611b819190612701565b8160020160046101000a81548163ffffffff021916908363ffffffff16021790555050565b6000428260020160049054906101000a900463ffffffff1663ffffffff1611159050919050565b6000808284611bdc9190612701565b905083811015611bef57611bee6128bf565b5b8091505092915050565b600082821115611c0c57611c0b6128bf565b5b8183611c189190612610565b905092915050565b828054611c2c906124c9565b90600052602060002090601f016020900481019282611c4e5760008555611c95565b82601f10611c6757805160ff1916838001178555611c95565b82800160010185558215611c95579182015b82811115611c94578251825591602001919060010190611c79565b5b509050611ca29190611ca6565b5090565b5b80821115611cbf576000816000905550600101611ca7565b5090565b6000604051905090565b600080fd5b600080fd5b600073ffffffffffffffffffffffffffffffffffffffff82169050919050565b6000611d0282611cd7565b9050919050565b611d1281611cf7565b8114611d1d57600080fd5b50565b600081359050611d2f81611d09565b92915050565b6000819050919050565b611d4881611d35565b8114611d5357600080fd5b50565b600081359050611d6581611d3f565b92915050565b60008060408385031215611d8257611d81611ccd565b5b6000611d9085828601611d20565b9250506020611da185828601611d56565b9150509250929050565b600060208284031215611dc157611dc0611ccd565b5b6000611dcf84828501611d56565b91505092915050565b60008060408385031215611def57611dee611ccd565b5b6000611dfd85828601611d56565b9250506020611e0e85828601611d56565b9150509250929050565b600081519050919050565b600082825260208201905092915050565b60005b83811015611e52578082015181840152602081019050611e37565b83811115611e61576000848401525b50505050565b6000601f19601f8301169050919050565b6000611e8382611e18565b611e8d8185611e23565b9350611e9d818560208601611e34565b611ea681611e67565b840191505092915050565b611eba81611d35565b82525050565b600063ffffffff82169050919050565b611ed981611ec0565b82525050565b600061ffff82169050919050565b611ef681611edf565b82525050565b600060c0820190508181036000830152611f168189611e78565b9050611f256020830188611eb1565b611f326040830187611ed0565b611f3f6060830186611ed0565b611f4c6080830185611eed565b611f5960a0830184611eed565b979650505050505050565b600080600060608486031215611f7d57611f7c611ccd565b5b6000611f8b86828701611d20565b9350506020611f9c86828701611d20565b9250506040611fad86828701611d56565b9150509250925092565b600060208284031215611fcd57611fcc611ccd565b5b6000611fdb84828501611d20565b91505092915050565b600081519050919050565b600082825260208201905092915050565b6000819050602082019050919050565b61201981611d35565b82525050565b600061202b8383612010565b60208301905092915050565b6000602082019050919050565b600061204f82611fe4565b6120598185611fef565b935061206483612000565b8060005b8381101561209557815161207c888261201f565b975061208783612037565b925050600181019050612068565b5085935050505092915050565b600060208201905081810360008301526120bc8184612044565b905092915050565b6120cd81611cf7565b82525050565b60006020820190506120e860008301846120c4565b92915050565b60006020820190506121036000830184611eb1565b92915050565b600080fd5b600080fd5b7f4e487b7100000000000000000000000000000000000000000000000000000000600052604160045260246000fd5b61214b82611e67565b810181811067ffffffffffffffff8211171561216a57612169612113565b5b80604052505050565b600061217d611cc3565b90506121898282612142565b919050565b600067ffffffffffffffff8211156121a9576121a8612113565b5b6121b282611e67565b9050602081019050919050565b82818337600083830152505050565b60006121e16121dc8461218e565b612173565b9050828152602081018484840111156121fd576121fc61210e565b5b6122088482856121bf565b509392505050565b600082601f83011261222557612224612109565b5b81356122358482602086016121ce565b91505092915050565b60006020828403121561225457612253611ccd565b5b600082013567ffffffffffffffff81111561227257612271611cd2565b5b61227e84828501612210565b91505092915050565b6000806040838503121561229e5761229d611ccd565b5b60006122ac85828601611d56565b925050602083013567ffffffffffffffff8111156122cd576122cc611cd2565b5b6122d985828601612210565b9150509250929050565b7f4e487b7100000000000000000000000000000000000000000000000000000000600052603260045260246000fd5b7f4e487b7100000000000000000000000000000000000000000000000000000000600052601160045260246000fd5b600061234c82611ec0565b915063ffffffff82141561236357612362612312565b5b600182019050919050565b60008115159050919050565b6123838161236e565b811461238e57600080fd5b50565b6000815190506123a08161237a565b92915050565b6000815190506123b581611d3f565b92915050565b6000806000806000806000806000806101408b8d0312156123df576123de611ccd565b5b60006123ed8d828e01612391565b9a505060206123fe8d828e01612391565b995050604061240f8d828e016123a6565b98505060606124208d828e016123a6565b97505060806124318d828e016123a6565b96505060a06124428d828e016123a6565b95505060c06124538d828e016123a6565b94505060e06124648d828e016123a6565b9350506101006124768d828e016123a6565b9250506101206124888d828e016123a6565b9150509295989b9194979a5092959850565b7f4e487b7100000000000000000000000000000000000000000000000000000000600052602260045260246000fd5b600060028204905060018216806124e157607f821691505b602082108114156124f5576124f461249a565b5b50919050565b7f4f776e61626c653a2063616c6c6572206973206e6f7420746865206f776e6572600082015250565b6000612531602083611e23565b915061253c826124fb565b602082019050919050565b6000602082019050818103600083015261256081612524565b9050919050565b600061257282611d35565b91507fffffffffffffffffffffffffffffffffffffffffffffffffffffffffffffffff8214156125a5576125a4612312565b5b600182019050919050565b7f4e487b7100000000000000000000000000000000000000000000000000000000600052601260045260246000fd5b60006125ea82611d35565b91506125f583611d35565b925082612605576126046125b0565b5b828206905092915050565b600061261b82611d35565b915061262683611d35565b92508282101561263957612638612312565b5b828203905092915050565b600061264f82611edf565b915061ffff82141561266457612663612312565b5b600182019050919050565b7f4f776e61626c653a206e6577206f776e657220697320746865207a65726f206160008201527f6464726573730000000000000000000000000000000000000000000000000000602082015250565b60006126cb602683611e23565b91506126d68261266f565b604082019050919050565b600060208201905081810360008301526126fa816126be565b9050919050565b600061270c82611d35565b915061271783611d35565b9250827fffffffffffffffffffffffffffffffffffffffffffffffffffffffffffffffff0382111561274c5761274b612312565b5b828201905092915050565b600061276282611d35565b915061276d83611d35565b92508261277d5761277c6125b0565b5b828204905092915050565b600081905092915050565b600061279e82611e18565b6127a88185612788565b93506127b8818560208601611e34565b80840191505092915050565b60006127d08284612793565b915081905092915050565b60006060820190506127f06000830186611eb1565b81810360208301526128028185611e78565b90506128116040830184611eb1565b949350505050565b6000819050919050565b61283461282f82611d35565b612819565b82525050565b60008160601b9050919050565b60006128528261283a565b9050919050565b600061286482612847565b9050919050565b61287c61287782611cf7565b612859565b82525050565b600061288e8286612823565b60208201915061289e828561286b565b6014820191506128ae8284612823565b602082019150819050949350505050565b7f4e487b7100000000000000000000000000000000000000000000000000000000600052600160045260246000fdfea2646970667358221220400830f775302999602a3413efbf9927f930a922a2cebcdad6243c85c154a21c64736f6c63430008090033",
  "immutableReferences": {},
  "source": "pragma solidity ^0.8.9;\n// SPDX-License-Identifier: MIT\nimport \"./zombieattack.sol\";\nimport \"./erc721.sol\";\nimport \"./safemath.sol\";\n\ncontract ZombieOwnership is ZombieBattle, ERC721 {\n\n  using SafeMath for uint256;\n\n  mapping (uint => address) zombieApprovals;\n\n  function balanceOf(address _owner) public override view returns (uint256 _balance) {\n    return ownerZombieCount[_owner];\n  }\n\n  function ownerOf(uint256 _tokenId) public override view returns (address _owner) {\n    return zombieToOwner[_tokenId];\n  }\n\n  function _transfer(address _from, address _to, uint256 _tokenId) private {\n    ownerZombieCount[_to] = ownerZombieCount[_to].add(1);\n    ownerZombieCount[msg.sender] = ownerZombieCount[msg.sender].sub(1);\n    zombieToOwner[_tokenId] = _to;\n    emit Transfer(_from, _to, _tokenId);\n  }\n\n  function transferFrom(address _from, address _to, uint256 _tokenId) external override payable {\n    require (zombieToOwner[_tokenId] == msg.sender || zombieApprovals[_tokenId] == msg.sender);\n    _transfer(_from, _to, _tokenId);\n  }\n      /*\n  Goal : vrifie que msg.sender a bien le token et approve\n  */\n\n   function approve(address _approved, uint256 _tokenId) external override payable onlyOwnerOf(_tokenId) {\n    zombieApprovals[_tokenId] = _approved;\n    emit Approval(msg.sender, _approved, _tokenId);\n  }\n  /*\n  Goal : vrifie que msg.sender a t approuv  prendre ce token / zombie, et appeler _transfer si c'est le cas.\n  */\n  function takeOwnership(uint256 _tokenId) public {\n    require(zombieApprovals[_tokenId] == msg.sender);\n    address owner = ownerOf(_tokenId);\n    _transfer(owner, msg.sender, _tokenId);\n  }\n}\n\n",
  "sourcePath": "/home/nacer/TestTruffle/contracts/zombieownership.sol",
  "compiler": {
    "name": "solc",
    "version": "0.8.9+commit.e5eed63a.Emscripten.clang"
  },
  "schemaVersion": "3.4.3",
  "updatedAt": "2021-10-15T10:02:05.909Z",
  "networkType": "ethereum",
  "devdoc": {
    "kind": "dev",
    "methods": {
      "owner()": {
        "details": "Returns the address of the current owner."
      },
      "renounceOwnership()": {
        "details": "Leaves the contract without owner. It will not be possible to call `onlyOwner` functions anymore. Can only be called by the current owner. NOTE: Renouncing ownership will leave the contract without an owner, thereby removing any functionality that is only available to the owner."
      },
      "transferOwnership(address)": {
        "details": "Transfers ownership of the contract to a new account (`newOwner`). Can only be called by the current owner."
      }
    },
    "version": 1
  },
  "userdoc": {
    "kind": "user",
    "methods": {},
    "version": 1
  }
}