{
  "contractName": "ZombieOwnership",
  "abi": [
    {
      "anonymous": false,
      "inputs": [
        {
          "indexed": true,
          "internalType": "address",
          "name": "_owner",
          "type": "address"
        },
        {
          "indexed": true,
          "internalType": "address",
          "name": "_approved",
          "type": "address"
        },
        {
          "indexed": false,
          "internalType": "uint256",
          "name": "_tokenId",
          "type": "uint256"
        }
      ],
      "name": "Approval",
      "type": "event"
    },
    {
      "anonymous": false,
      "inputs": [
        {
          "indexed": false,
          "internalType": "uint256",
          "name": "zombieId",
          "type": "uint256"
        },
        {
          "indexed": false,
          "internalType": "string",
          "name": "name",
          "type": "string"
        },
        {
          "indexed": false,
          "internalType": "uint256",
          "name": "dna",
          "type": "uint256"
        }
      ],
      "name": "NewZombie",
      "type": "event"
    },
    {
      "anonymous": false,
      "inputs": [
        {
          "indexed": true,
          "internalType": "address",
          "name": "previousOwner",
          "type": "address"
        },
        {
          "indexed": true,
          "internalType": "address",
          "name": "newOwner",
          "type": "address"
        }
      ],
      "name": "OwnershipTransferred",
      "type": "event"
    },
    {
      "anonymous": false,
      "inputs": [
        {
          "indexed": true,
          "internalType": "address",
          "name": "_from",
          "type": "address"
        },
        {
          "indexed": true,
          "internalType": "address",
          "name": "_to",
          "type": "address"
        },
        {
          "indexed": false,
          "internalType": "uint256",
          "name": "_tokenId",
          "type": "uint256"
        }
      ],
      "name": "Transfer",
      "type": "event"
    },
    {
      "inputs": [
        {
          "internalType": "uint256",
          "name": "_zombieId",
          "type": "uint256"
        },
        {
          "internalType": "uint256",
          "name": "_targetId",
          "type": "uint256"
        }
      ],
      "name": "attack",
      "outputs": [],
      "stateMutability": "nonpayable",
      "type": "function"
    },
    {
      "inputs": [
        {
          "internalType": "uint256",
          "name": "_zombieId",
          "type": "uint256"
        },
        {
          "internalType": "uint256",
          "name": "_newDna",
          "type": "uint256"
        }
      ],
      "name": "changeDna",
      "outputs": [],
      "stateMutability": "nonpayable",
      "type": "function"
    },
    {
      "inputs": [
        {
          "internalType": "uint256",
          "name": "_zombieId",
          "type": "uint256"
        },
        {
          "internalType": "string",
          "name": "_newName",
          "type": "string"
        }
      ],
      "name": "changeName",
      "outputs": [],
      "stateMutability": "nonpayable",
      "type": "function"
    },
    {
      "inputs": [
        {
          "internalType": "string",
          "name": "_name",
          "type": "string"
        }
      ],
      "name": "createRandomZombie",
      "outputs": [],
      "stateMutability": "nonpayable",
      "type": "function"
    },
    {
      "inputs": [
        {
          "internalType": "uint256",
          "name": "_zombieId",
          "type": "uint256"
        },
        {
          "internalType": "uint256",
          "name": "_kittyId",
          "type": "uint256"
        }
      ],
      "name": "feedOnKitty",
      "outputs": [],
      "stateMutability": "nonpayable",
      "type": "function"
    },
    {
      "inputs": [
        {
          "internalType": "address",
          "name": "_owner",
          "type": "address"
        }
      ],
      "name": "getZombiesByOwner",
      "outputs": [
        {
          "internalType": "uint256[]",
          "name": "",
          "type": "uint256[]"
        }
      ],
      "stateMutability": "view",
      "type": "function"
    },
    {
      "inputs": [
        {
          "internalType": "uint256",
          "name": "_zombieId",
          "type": "uint256"
        }
      ],
      "name": "levelUp",
      "outputs": [],
      "stateMutability": "payable",
      "type": "function"
    },
    {
      "inputs": [],
      "name": "owner",
      "outputs": [
        {
          "internalType": "address",
          "name": "",
          "type": "address"
        }
      ],
      "stateMutability": "view",
      "type": "function"
    },
    {
      "inputs": [],
      "name": "renounceOwnership",
      "outputs": [],
      "stateMutability": "nonpayable",
      "type": "function"
    },
    {
      "inputs": [
        {
          "internalType": "address",
          "name": "_address",
          "type": "address"
        }
      ],
      "name": "setKittyContractAddress",
      "outputs": [],
      "stateMutability": "nonpayable",
      "type": "function"
    },
    {
      "inputs": [
        {
          "internalType": "uint256",
          "name": "_fee",
          "type": "uint256"
        }
      ],
      "name": "setLevelUpFee",
      "outputs": [],
      "stateMutability": "nonpayable",
      "type": "function"
    },
    {
      "inputs": [
        {
          "internalType": "address",
          "name": "newOwner",
          "type": "address"
        }
      ],
      "name": "transferOwnership",
      "outputs": [],
      "stateMutability": "nonpayable",
      "type": "function"
    },
    {
      "inputs": [],
      "name": "withdraw",
      "outputs": [],
      "stateMutability": "nonpayable",
      "type": "function"
    },
    {
      "inputs": [
        {
          "internalType": "uint256",
          "name": "",
          "type": "uint256"
        }
      ],
      "name": "zombieToOwner",
      "outputs": [
        {
          "internalType": "address",
          "name": "",
          "type": "address"
        }
      ],
      "stateMutability": "view",
      "type": "function"
    },
    {
      "inputs": [
        {
          "internalType": "uint256",
          "name": "",
          "type": "uint256"
        }
      ],
      "name": "zombies",
      "outputs": [
        {
          "internalType": "string",
          "name": "name",
          "type": "string"
        },
        {
          "internalType": "uint256",
          "name": "dna",
          "type": "uint256"
        },
        {
          "internalType": "uint32",
          "name": "level",
          "type": "uint32"
        },
        {
          "internalType": "uint32",
          "name": "readyTime",
          "type": "uint32"
        },
        {
          "internalType": "uint16",
          "name": "winCount",
          "type": "uint16"
        },
        {
          "internalType": "uint16",
          "name": "lossCount",
          "type": "uint16"
        }
      ],
      "stateMutability": "view",
      "type": "function"
    },
    {
      "inputs": [
        {
          "internalType": "address",
          "name": "_owner",
          "type": "address"
        }
      ],
      "name": "balanceOf",
      "outputs": [
        {
          "internalType": "uint256",
          "name": "_balance",
          "type": "uint256"
        }
      ],
      "stateMutability": "view",
      "type": "function"
    },
    {
      "inputs": [
        {
          "internalType": "uint256",
          "name": "_tokenId",
          "type": "uint256"
        }
      ],
      "name": "ownerOf",
      "outputs": [
        {
          "internalType": "address",
          "name": "_owner",
          "type": "address"
        }
      ],
      "stateMutability": "view",
      "type": "function"
    },
    {
      "inputs": [
        {
          "internalType": "address",
          "name": "_to",
          "type": "address"
        },
        {
          "internalType": "uint256",
          "name": "_tokenId",
          "type": "uint256"
        }
      ],
      "name": "transfer",
      "outputs": [],
      "stateMutability": "nonpayable",
      "type": "function"
    },
    {
      "inputs": [
        {
          "internalType": "address",
          "name": "_to",
          "type": "address"
        },
        {
          "internalType": "uint256",
          "name": "_tokenId",
          "type": "uint256"
        }
      ],
      "name": "approve",
      "outputs": [],
      "stateMutability": "nonpayable",
      "type": "function"
    },
    {
      "inputs": [
        {
          "internalType": "uint256",
          "name": "_tokenId",
          "type": "uint256"
        }
      ],
      "name": "takeOwnership",
      "outputs": [],
      "stateMutability": "nonpayable",
      "type": "function"
    }
  ],
  "bytecode": "0x60806040526010600155600154600a6200001a9190620002c6565b6002556201518060035566038d7ea4c6800060085560006009556046600a553480156200004657600080fd5b50620000676200005b6200006d60201b60201c565b6200007560201b60201c565b62000317565b600033905090565b60008060009054906101000a900473ffffffffffffffffffffffffffffffffffffffff169050816000806101000a81548173ffffffffffffffffffffffffffffffffffffffff021916908373ffffffffffffffffffffffffffffffffffffffff1602179055508173ffffffffffffffffffffffffffffffffffffffff168173ffffffffffffffffffffffffffffffffffffffff167f8be0079c531659141344cd1fd0a4f28419497f9722a3daafe3b4186f6b6457e060405160405180910390a35050565b7f4e487b7100000000000000000000000000000000000000000000000000000000600052601160045260246000fd5b60008160011c9050919050565b6000808291508390505b6001851115620001c7578086048111156200019f576200019e62000139565b5b6001851615620001af5780820291505b8081029050620001bf8562000168565b94506200017f565b94509492505050565b600082620001e25760019050620002b5565b81620001f25760009050620002b5565b81600181146200020b576002811462000216576200024c565b6001915050620002b5565b60ff8411156200022b576200022a62000139565b5b8360020a91508482111562000245576200024462000139565b5b50620002b5565b5060208310610133831016604e8410600b8410161715620002865782820a90508381111562000280576200027f62000139565b5b620002b5565b62000295848484600162000175565b92509050818404811115620002af57620002ae62000139565b5b81810290505b9392505050565b6000819050919050565b6000620002d382620002bc565b9150620002e083620002bc565b92506200030f7fffffffffffffffffffffffffffffffffffffffffffffffffffffffffffffffff8484620001d0565b905092915050565b61289780620003276000396000f3fe60806040526004361061011f5760003560e01c806370a08231116100a0578063b2e6ceeb11610064578063b2e6ceeb146103c5578063c39cbef1146103ee578063ccf670f814610417578063e1fa763814610440578063f2fde38b146104695761011f565b806370a08231146102f4578063715018a6146103315780637bff0a01146103485780638da5cb5b14610371578063a9059cbb1461039c5761011f565b80634412e104116100e75780634412e104146101eb578063528b7b8f146102285780635f4623f1146102655780635faf28801461028e5780636352211e146102b75761011f565b8063095ea7b3146101245780630ce90ec21461014d57806317a7f4cc146101695780632052465e146101925780633ccfd60b146101d4575b600080fd5b34801561013057600080fd5b5061014b60048036038101906101469190611d31565b610492565b005b61016760048036038101906101629190611d71565b6105ba565b005b34801561017557600080fd5b50610190600480360381019061018b9190611d9e565b61062f565b005b34801561019e57600080fd5b506101b960048036038101906101b49190611d71565b61075c565b6040516101cb96959493929190611ec2565b60405180910390f35b3480156101e057600080fd5b506101e961086c565b005b3480156101f757600080fd5b50610212600480360381019061020d9190611f2a565b610955565b60405161021f9190612015565b60405180910390f35b34801561023457600080fd5b5061024f600480360381019061024a9190611d71565b610aa8565b60405161025c9190612046565b60405180910390f35b34801561027157600080fd5b5061028c60048036038101906102879190611f2a565b610adb565b005b34801561029a57600080fd5b506102b560048036038101906102b09190611d9e565b610b9b565b005b3480156102c357600080fd5b506102de60048036038101906102d99190611d71565b610c83565b6040516102eb9190612046565b60405180910390f35b34801561030057600080fd5b5061031b60048036038101906103169190611f2a565b610cc0565b6040516103289190612061565b60405180910390f35b34801561033d57600080fd5b50610346610d09565b005b34801561035457600080fd5b5061036f600480360381019061036a91906121b1565b610d91565b005b34801561037d57600080fd5b50610386610e12565b6040516103939190612046565b60405180910390f35b3480156103a857600080fd5b506103c360048036038101906103be9190611d31565b610e3b565b005b3480156103d157600080fd5b506103ec60048036038101906103e79190611d71565b610eb7565b005b3480156103fa57600080fd5b50610415600480360381019061041091906121fa565b610f3e565b005b34801561042357600080fd5b5061043e60048036038101906104399190611d71565b611036565b005b34801561044c57600080fd5b5061046760048036038101906104629190611d9e565b6110bc565b005b34801561047557600080fd5b50610490600480360381019061048b9190611f2a565b61131d565b005b806005600082815260200190815260200160002060009054906101000a900473ffffffffffffffffffffffffffffffffffffffff1673ffffffffffffffffffffffffffffffffffffffff163373ffffffffffffffffffffffffffffffffffffffff16146104fe57600080fd5b82600b600084815260200190815260200160002060006101000a81548173ffffffffffffffffffffffffffffffffffffffff021916908373ffffffffffffffffffffffffffffffffffffffff1602179055508273ffffffffffffffffffffffffffffffffffffffff163373ffffffffffffffffffffffffffffffffffffffff167f8c5be1e5ebec7d5bd14f71427d1e84f3dd0314c0f7b2291e5b200ac8c7c3b925846040516105ad9190612061565b60405180910390a3505050565b60085434146105c857600080fd5b600481815481106105dc576105db612256565b5b9060005260206000209060030201600201600081819054906101000a900463ffffffff168092919061060d906122b4565b91906101000a81548163ffffffff021916908363ffffffff1602179055505050565b6000600760009054906101000a900473ffffffffffffffffffffffffffffffffffffffff1673ffffffffffffffffffffffffffffffffffffffff1663e98b7f4d836040518263ffffffff1660e01b815260040161068c9190612061565b6101406040518083038186803b1580156106a557600080fd5b505afa1580156106b9573d6000803e3d6000fd5b505050506040513d601f19601f820116820180604052508101906106dd919061232e565b9091929394959697985090919293949596975090919293949596509091929394955090919293945090919293509091925090915090508091505061075783826040518060400160405280600581526020017f6b69747479000000000000000000000000000000000000000000000000000000815250611415565b505050565b6004818154811061076c57600080fd5b906000526020600020906003020160009150905080600001805461078f9061243c565b80601f01602080910402602001604051908101604052809291908181526020018280546107bb9061243c565b80156108085780601f106107dd57610100808354040283529160200191610808565b820191906000526020600020905b8154815290600101906020018083116107eb57829003601f168201915b5050505050908060010154908060020160009054906101000a900463ffffffff16908060020160049054906101000a900463ffffffff16908060020160089054906101000a900461ffff169080600201600a9054906101000a900461ffff16905086565b6108746115ae565b73ffffffffffffffffffffffffffffffffffffffff16610892610e12565b73ffffffffffffffffffffffffffffffffffffffff16146108e8576040517f08c379a00000000000000000000000000000000000000000000000000000000081526004016108df906124ba565b60405180910390fd5b60006108f2610e12565b90508073ffffffffffffffffffffffffffffffffffffffff166108fc3073ffffffffffffffffffffffffffffffffffffffff16319081150290604051600060405180830381858888f19350505050158015610951573d6000803e3d6000fd5b5050565b60606000600660008473ffffffffffffffffffffffffffffffffffffffff1673ffffffffffffffffffffffffffffffffffffffff1681526020019081526020016000205467ffffffffffffffff8111156109b2576109b1612086565b5b6040519080825280602002602001820160405280156109e05781602001602082028036833780820191505090505b5090506000805b600480549050811015610a9d578473ffffffffffffffffffffffffffffffffffffffff166005600083815260200190815260200160002060009054906101000a900473ffffffffffffffffffffffffffffffffffffffff1673ffffffffffffffffffffffffffffffffffffffff161415610a8a5780838381518110610a6f57610a6e612256565b5b6020026020010181815250508180610a86906124da565b9250505b8080610a95906124da565b9150506109e7565b508192505050919050565b60056020528060005260406000206000915054906101000a900473ffffffffffffffffffffffffffffffffffffffff1681565b610ae36115ae565b73ffffffffffffffffffffffffffffffffffffffff16610b01610e12565b73ffffffffffffffffffffffffffffffffffffffff1614610b57576040517f08c379a0000000000000000000000000000000000000000000000000000000008152600401610b4e906124ba565b60405180910390fd5b80600760006101000a81548173ffffffffffffffffffffffffffffffffffffffff021916908373ffffffffffffffffffffffffffffffffffffffff16021790555050565b6014828160048281548110610bb357610bb2612256565b5b906000526020600020906003020160020160009054906101000a900463ffffffff1663ffffffff161015610be657600080fd5b836005600082815260200190815260200160002060009054906101000a900473ffffffffffffffffffffffffffffffffffffffff1673ffffffffffffffffffffffffffffffffffffffff163373ffffffffffffffffffffffffffffffffffffffff1614610c5257600080fd5b8360048681548110610c6757610c66612256565b5b9060005260206000209060030201600101819055505050505050565b60006005600083815260200190815260200160002060009054906101000a900473ffffffffffffffffffffffffffffffffffffffff169050919050565b6000600660008373ffffffffffffffffffffffffffffffffffffffff1673ffffffffffffffffffffffffffffffffffffffff168152602001908152602001600020549050919050565b610d116115ae565b73ffffffffffffffffffffffffffffffffffffffff16610d2f610e12565b73ffffffffffffffffffffffffffffffffffffffff1614610d85576040517f08c379a0000000000000000000000000000000000000000000000000000000008152600401610d7c906124ba565b60405180910390fd5b610d8f60006115b6565b565b6000600660003373ffffffffffffffffffffffffffffffffffffffff1673ffffffffffffffffffffffffffffffffffffffff1681526020019081526020016000205414610ddd57600080fd5b6000610de88261167a565b9050606481610df79190612552565b81610e029190612583565b9050610e0e82826116bf565b5050565b60008060009054906101000a900473ffffffffffffffffffffffffffffffffffffffff16905090565b806005600082815260200190815260200160002060009054906101000a900473ffffffffffffffffffffffffffffffffffffffff1673ffffffffffffffffffffffffffffffffffffffff163373ffffffffffffffffffffffffffffffffffffffff1614610ea757600080fd5b610eb23384846118f5565b505050565b3373ffffffffffffffffffffffffffffffffffffffff16600b600083815260200190815260200160002060009054906101000a900473ffffffffffffffffffffffffffffffffffffffff1673ffffffffffffffffffffffffffffffffffffffff1614610f2257600080fd5b6000610f2d82610c83565b9050610f3a8133846118f5565b5050565b6002828160048281548110610f5657610f55612256565b5b906000526020600020906003020160020160009054906101000a900463ffffffff1663ffffffff161015610f8957600080fd5b836005600082815260200190815260200160002060009054906101000a900473ffffffffffffffffffffffffffffffffffffffff1673ffffffffffffffffffffffffffffffffffffffff163373ffffffffffffffffffffffffffffffffffffffff1614610ff557600080fd5b836004868154811061100a57611009612256565b5b9060005260206000209060030201600001908051906020019061102e929190611be6565b505050505050565b61103e6115ae565b73ffffffffffffffffffffffffffffffffffffffff1661105c610e12565b73ffffffffffffffffffffffffffffffffffffffff16146110b2576040517f08c379a00000000000000000000000000000000000000000000000000000000081526004016110a9906124ba565b60405180910390fd5b8060088190555050565b816005600082815260200190815260200160002060009054906101000a900473ffffffffffffffffffffffffffffffffffffffff1673ffffffffffffffffffffffffffffffffffffffff163373ffffffffffffffffffffffffffffffffffffffff161461112857600080fd5b60006004848154811061113e5761113d612256565b5b9060005260206000209060030201905060006004848154811061116457611163612256565b5b9060005260206000209060030201905060006111806064611add565b9050600a5481116112915782600201600881819054906101000a900461ffff16809291906111ad906125b7565b91906101000a81548161ffff021916908361ffff1602179055505082600201600081819054906101000a900463ffffffff16809291906111ec906122b4565b91906101000a81548163ffffffff021916908363ffffffff1602179055505081600201600a81819054906101000a900461ffff168092919061122d906125b7565b91906101000a81548161ffff021916908361ffff1602179055505061128c8683600101546040518060400160405280600681526020017f7a6f6d6269650000000000000000000000000000000000000000000000000000815250611415565b611315565b82600201600a81819054906101000a900461ffff16809291906112b3906125b7565b91906101000a81548161ffff021916908361ffff1602179055505081600201600881819054906101000a900461ffff16809291906112f0906125b7565b91906101000a81548161ffff021916908361ffff1602179055505061131483611b39565b5b505050505050565b6113256115ae565b73ffffffffffffffffffffffffffffffffffffffff16611343610e12565b73ffffffffffffffffffffffffffffffffffffffff1614611399576040517f08c379a0000000000000000000000000000000000000000000000000000000008152600401611390906124ba565b60405180910390fd5b600073ffffffffffffffffffffffffffffffffffffffff168173ffffffffffffffffffffffffffffffffffffffff161415611409576040517f08c379a000000000000000000000000000000000000000000000000000000000815260040161140090612654565b60405180910390fd5b611412816115b6565b50565b826005600082815260200190815260200160002060009054906101000a900473ffffffffffffffffffffffffffffffffffffffff1673ffffffffffffffffffffffffffffffffffffffff163373ffffffffffffffffffffffffffffffffffffffff161461148157600080fd5b60006004858154811061149757611496612256565b5b906000526020600020906003020190506114b081611b6c565b6114b957600080fd5b600254846114c79190612552565b9350600060028583600101546114dd9190612674565b6114e791906126ca565b90507f8d53323b21b9f304546f6d3e61cde865451064d614aa4912f395b755a9d8cad98460405160200161151b9190612737565b60405160208183030381529060405280519060200120141561155e5760636064826115469190612552565b826115519190612583565b61155b9190612674565b90505b61159d6040518060400160405280600681526020017f4e6f4e616d650000000000000000000000000000000000000000000000000000815250826116bf565b6115a682611b39565b505050505050565b600033905090565b60008060009054906101000a900473ffffffffffffffffffffffffffffffffffffffff169050816000806101000a81548173ffffffffffffffffffffffffffffffffffffffff021916908373ffffffffffffffffffffffffffffffffffffffff1602179055508173ffffffffffffffffffffffffffffffffffffffff168173ffffffffffffffffffffffffffffffffffffffff167f8be0079c531659141344cd1fd0a4f28419497f9722a3daafe3b4186f6b6457e060405160405180910390a35050565b6000808260405160200161168e9190612737565b6040516020818303038152906040528051906020012060001c9050600254816116b79190612552565b915050919050565b60046040518060c00160405280848152602001838152602001600163ffffffff168152602001600354426116f39190612674565b63ffffffff168152602001600061ffff168152602001600061ffff1681525090806001815401808255809150506001900390600052602060002090600302016000909190919091506000820151816000019080519060200190611757929190611be6565b506020820151816001015560408201518160020160006101000a81548163ffffffff021916908363ffffffff16021790555060608201518160020160046101000a81548163ffffffff021916908363ffffffff16021790555060808201518160020160086101000a81548161ffff021916908361ffff16021790555060a082015181600201600a6101000a81548161ffff021916908361ffff16021790555050506000600160048054905061180c9190612583565b9050336005600083815260200190815260200160002060006101000a81548173ffffffffffffffffffffffffffffffffffffffff021916908373ffffffffffffffffffffffffffffffffffffffff160217905550600660003373ffffffffffffffffffffffffffffffffffffffff1673ffffffffffffffffffffffffffffffffffffffff16815260200190815260200160002060008154809291906118b0906124da565b91905055507f88f026aacbbecc90c18411df4b1185fd8d9be2470f1962f192bf84a27d0704b78184846040516118e89392919061274e565b60405180910390a1505050565b6119486001600660008573ffffffffffffffffffffffffffffffffffffffff1673ffffffffffffffffffffffffffffffffffffffff16815260200190815260200160002054611b9390919063ffffffff16565b600660008473ffffffffffffffffffffffffffffffffffffffff1673ffffffffffffffffffffffffffffffffffffffff168152602001908152602001600020819055506119de6001600660003373ffffffffffffffffffffffffffffffffffffffff1673ffffffffffffffffffffffffffffffffffffffff16815260200190815260200160002054611bbf90919063ffffffff16565b600660003373ffffffffffffffffffffffffffffffffffffffff1673ffffffffffffffffffffffffffffffffffffffff16815260200190815260200160002081905550816005600083815260200190815260200160002060006101000a81548173ffffffffffffffffffffffffffffffffffffffff021916908373ffffffffffffffffffffffffffffffffffffffff1602179055508173ffffffffffffffffffffffffffffffffffffffff168373ffffffffffffffffffffffffffffffffffffffff167fddf252ad1be2c89b69c2b068fc378daa952ba7f163c4a11628f55a4df523b3ef83604051611ad09190612061565b60405180910390a3505050565b600060096000815480929190611af2906124da565b9190505550814233600954604051602001611b0f939291906127f5565b6040516020818303038152906040528051906020012060001c611b329190612552565b9050919050565b60035442611b479190612674565b8160020160046101000a81548163ffffffff021916908363ffffffff16021790555050565b6000428260020160049054906101000a900463ffffffff1663ffffffff1611159050919050565b6000808284611ba29190612674565b905083811015611bb557611bb4612832565b5b8091505092915050565b600082821115611bd257611bd1612832565b5b8183611bde9190612583565b905092915050565b828054611bf29061243c565b90600052602060002090601f016020900481019282611c145760008555611c5b565b82601f10611c2d57805160ff1916838001178555611c5b565b82800160010185558215611c5b579182015b82811115611c5a578251825591602001919060010190611c3f565b5b509050611c689190611c6c565b5090565b5b80821115611c85576000816000905550600101611c6d565b5090565b6000604051905090565b600080fd5b600080fd5b600073ffffffffffffffffffffffffffffffffffffffff82169050919050565b6000611cc882611c9d565b9050919050565b611cd881611cbd565b8114611ce357600080fd5b50565b600081359050611cf581611ccf565b92915050565b6000819050919050565b611d0e81611cfb565b8114611d1957600080fd5b50565b600081359050611d2b81611d05565b92915050565b60008060408385031215611d4857611d47611c93565b5b6000611d5685828601611ce6565b9250506020611d6785828601611d1c565b9150509250929050565b600060208284031215611d8757611d86611c93565b5b6000611d9584828501611d1c565b91505092915050565b60008060408385031215611db557611db4611c93565b5b6000611dc385828601611d1c565b9250506020611dd485828601611d1c565b9150509250929050565b600081519050919050565b600082825260208201905092915050565b60005b83811015611e18578082015181840152602081019050611dfd565b83811115611e27576000848401525b50505050565b6000601f19601f8301169050919050565b6000611e4982611dde565b611e538185611de9565b9350611e63818560208601611dfa565b611e6c81611e2d565b840191505092915050565b611e8081611cfb565b82525050565b600063ffffffff82169050919050565b611e9f81611e86565b82525050565b600061ffff82169050919050565b611ebc81611ea5565b82525050565b600060c0820190508181036000830152611edc8189611e3e565b9050611eeb6020830188611e77565b611ef86040830187611e96565b611f056060830186611e96565b611f126080830185611eb3565b611f1f60a0830184611eb3565b979650505050505050565b600060208284031215611f4057611f3f611c93565b5b6000611f4e84828501611ce6565b91505092915050565b600081519050919050565b600082825260208201905092915050565b6000819050602082019050919050565b611f8c81611cfb565b82525050565b6000611f9e8383611f83565b60208301905092915050565b6000602082019050919050565b6000611fc282611f57565b611fcc8185611f62565b9350611fd783611f73565b8060005b83811015612008578151611fef8882611f92565b9750611ffa83611faa565b925050600181019050611fdb565b5085935050505092915050565b6000602082019050818103600083015261202f8184611fb7565b905092915050565b61204081611cbd565b82525050565b600060208201905061205b6000830184612037565b92915050565b60006020820190506120766000830184611e77565b92915050565b600080fd5b600080fd5b7f4e487b7100000000000000000000000000000000000000000000000000000000600052604160045260246000fd5b6120be82611e2d565b810181811067ffffffffffffffff821117156120dd576120dc612086565b5b80604052505050565b60006120f0611c89565b90506120fc82826120b5565b919050565b600067ffffffffffffffff82111561211c5761211b612086565b5b61212582611e2d565b9050602081019050919050565b82818337600083830152505050565b600061215461214f84612101565b6120e6565b9050828152602081018484840111156121705761216f612081565b5b61217b848285612132565b509392505050565b600082601f8301126121985761219761207c565b5b81356121a8848260208601612141565b91505092915050565b6000602082840312156121c7576121c6611c93565b5b600082013567ffffffffffffffff8111156121e5576121e4611c98565b5b6121f184828501612183565b91505092915050565b6000806040838503121561221157612210611c93565b5b600061221f85828601611d1c565b925050602083013567ffffffffffffffff8111156122405761223f611c98565b5b61224c85828601612183565b9150509250929050565b7f4e487b7100000000000000000000000000000000000000000000000000000000600052603260045260246000fd5b7f4e487b7100000000000000000000000000000000000000000000000000000000600052601160045260246000fd5b60006122bf82611e86565b915063ffffffff8214156122d6576122d5612285565b5b600182019050919050565b60008115159050919050565b6122f6816122e1565b811461230157600080fd5b50565b600081519050612313816122ed565b92915050565b60008151905061232881611d05565b92915050565b6000806000806000806000806000806101408b8d03121561235257612351611c93565b5b60006123608d828e01612304565b9a505060206123718d828e01612304565b99505060406123828d828e01612319565b98505060606123938d828e01612319565b97505060806123a48d828e01612319565b96505060a06123b58d828e01612319565b95505060c06123c68d828e01612319565b94505060e06123d78d828e01612319565b9350506101006123e98d828e01612319565b9250506101206123fb8d828e01612319565b9150509295989b9194979a5092959850565b7f4e487b7100000000000000000000000000000000000000000000000000000000600052602260045260246000fd5b6000600282049050600182168061245457607f821691505b602082108114156124685761246761240d565b5b50919050565b7f4f776e61626c653a2063616c6c6572206973206e6f7420746865206f776e6572600082015250565b60006124a4602083611de9565b91506124af8261246e565b602082019050919050565b600060208201905081810360008301526124d381612497565b9050919050565b60006124e582611cfb565b91507fffffffffffffffffffffffffffffffffffffffffffffffffffffffffffffffff82141561251857612517612285565b5b600182019050919050565b7f4e487b7100000000000000000000000000000000000000000000000000000000600052601260045260246000fd5b600061255d82611cfb565b915061256883611cfb565b92508261257857612577612523565b5b828206905092915050565b600061258e82611cfb565b915061259983611cfb565b9250828210156125ac576125ab612285565b5b828203905092915050565b60006125c282611ea5565b915061ffff8214156125d7576125d6612285565b5b600182019050919050565b7f4f776e61626c653a206e6577206f776e657220697320746865207a65726f206160008201527f6464726573730000000000000000000000000000000000000000000000000000602082015250565b600061263e602683611de9565b9150612649826125e2565b604082019050919050565b6000602082019050818103600083015261266d81612631565b9050919050565b600061267f82611cfb565b915061268a83611cfb565b9250827fffffffffffffffffffffffffffffffffffffffffffffffffffffffffffffffff038211156126bf576126be612285565b5b828201905092915050565b60006126d582611cfb565b91506126e083611cfb565b9250826126f0576126ef612523565b5b828204905092915050565b600081905092915050565b600061271182611dde565b61271b81856126fb565b935061272b818560208601611dfa565b80840191505092915050565b60006127438284612706565b915081905092915050565b60006060820190506127636000830186611e77565b81810360208301526127758185611e3e565b90506127846040830184611e77565b949350505050565b6000819050919050565b6127a76127a282611cfb565b61278c565b82525050565b60008160601b9050919050565b60006127c5826127ad565b9050919050565b60006127d7826127ba565b9050919050565b6127ef6127ea82611cbd565b6127cc565b82525050565b60006128018286612796565b60208201915061281182856127de565b6014820191506128218284612796565b602082019150819050949350505050565b7f4e487b7100000000000000000000000000000000000000000000000000000000600052600160045260246000fdfea2646970667358221220754f6cc0177dd142ee8540dd9d2614f9ec20dffcac3fa5aae716d5e6c9d81cce64736f6c63430008090033",
  "immutableReferences": {},
  "source": "pragma solidity ^0.8.9;\n// SPDX-License-Identifier: MIT\nimport \"./zombieattack.sol\";\nimport \"./erc721.sol\";\nimport \"./safemath.sol\";\n\ncontract ZombieOwnership is ZombieBattle, ERC721 {\n\n  using SafeMath for uint256;\n\n  mapping (uint => address) zombieApprovals;\n\n  function balanceOf(address _owner) public override view returns (uint256 _balance) {\n    return ownerZombieCount[_owner];\n  }\n\n  function ownerOf(uint256 _tokenId) public override view returns (address _owner) {\n    return zombieToOwner[_tokenId];\n  }\n\n  function _transfer(address _from, address _to, uint256 _tokenId) private {\n    ownerZombieCount[_to] = ownerZombieCount[_to].add(1);\n    ownerZombieCount[msg.sender] = ownerZombieCount[msg.sender].sub(1);\n    zombieToOwner[_tokenId] = _to;\n    emit Transfer(_from, _to, _tokenId);\n  }\n\n  function transfer(address _to, uint256 _tokenId) public override onlyOwnerOf(_tokenId) {\n    _transfer(msg.sender, _to, _tokenId);\n  }\n      /*\n  Goal : vrifie que msg.sender a bien le token et approve\n  */\n\n  function approve(address _to, uint256 _tokenId) public override onlyOwnerOf(_tokenId) {\n    zombieApprovals[_tokenId] = _to;\n    emit Approval(msg.sender, _to, _tokenId);\n  }\n  \n  /*\n  Goal : vrifie que msg.sender a t approuv  prendre ce token / zombie, et appeler _transfer si c'est le cas.\n  */\n  function takeOwnership(uint256 _tokenId) public override {\n    require(zombieApprovals[_tokenId] == msg.sender);\n    address owner = ownerOf(_tokenId);\n    _transfer(owner, msg.sender, _tokenId);\n  }\n}\n\n",
  "sourcePath": "/home/nacer/TestTruffle/contracts/zombieownership.sol",
  "compiler": {
    "name": "solc",
    "version": "0.8.9+commit.e5eed63a.Emscripten.clang"
  },
  "schemaVersion": "3.4.3",
  "updatedAt": "2021-10-13T12:55:07.277Z",
  "devdoc": {
    "kind": "dev",
    "methods": {
      "owner()": {
        "details": "Returns the address of the current owner."
      },
      "renounceOwnership()": {
        "details": "Leaves the contract without owner. It will not be possible to call `onlyOwner` functions anymore. Can only be called by the current owner. NOTE: Renouncing ownership will leave the contract without an owner, thereby removing any functionality that is only available to the owner."
      },
      "transferOwnership(address)": {
        "details": "Transfers ownership of the contract to a new account (`newOwner`). Can only be called by the current owner."
      }
    },
    "version": 1
  },
  "userdoc": {
    "kind": "user",
    "methods": {},
    "version": 1
  }
}