{
  "contractName": "ZombieHelper",
  "abi": [
    {
      "anonymous": false,
      "inputs": [
        {
          "indexed": false,
          "internalType": "uint256",
          "name": "zombieId",
          "type": "uint256"
        },
        {
          "indexed": false,
          "internalType": "string",
          "name": "name",
          "type": "string"
        },
        {
          "indexed": false,
          "internalType": "uint256",
          "name": "dna",
          "type": "uint256"
        }
      ],
      "name": "NewZombie",
      "type": "event"
    },
    {
      "anonymous": false,
      "inputs": [
        {
          "indexed": true,
          "internalType": "address",
          "name": "previousOwner",
          "type": "address"
        },
        {
          "indexed": true,
          "internalType": "address",
          "name": "newOwner",
          "type": "address"
        }
      ],
      "name": "OwnershipTransferred",
      "type": "event"
    },
    {
      "inputs": [
        {
          "internalType": "string",
          "name": "_name",
          "type": "string"
        }
      ],
      "name": "createRandomZombie",
      "outputs": [],
      "stateMutability": "nonpayable",
      "type": "function"
    },
    {
      "inputs": [
        {
          "internalType": "uint256",
          "name": "_zombieId",
          "type": "uint256"
        },
        {
          "internalType": "uint256",
          "name": "_kittyId",
          "type": "uint256"
        }
      ],
      "name": "feedOnKitty",
      "outputs": [],
      "stateMutability": "nonpayable",
      "type": "function"
    },
    {
      "inputs": [],
      "name": "owner",
      "outputs": [
        {
          "internalType": "address",
          "name": "",
          "type": "address"
        }
      ],
      "stateMutability": "view",
      "type": "function",
      "constant": true
    },
    {
      "inputs": [],
      "name": "renounceOwnership",
      "outputs": [],
      "stateMutability": "nonpayable",
      "type": "function"
    },
    {
      "inputs": [
        {
          "internalType": "address",
          "name": "_address",
          "type": "address"
        }
      ],
      "name": "setKittyContractAddress",
      "outputs": [],
      "stateMutability": "nonpayable",
      "type": "function"
    },
    {
      "inputs": [
        {
          "internalType": "address",
          "name": "newOwner",
          "type": "address"
        }
      ],
      "name": "transferOwnership",
      "outputs": [],
      "stateMutability": "nonpayable",
      "type": "function"
    },
    {
      "inputs": [
        {
          "internalType": "uint256",
          "name": "",
          "type": "uint256"
        }
      ],
      "name": "zombieToOwner",
      "outputs": [
        {
          "internalType": "address",
          "name": "",
          "type": "address"
        }
      ],
      "stateMutability": "view",
      "type": "function",
      "constant": true
    },
    {
      "inputs": [
        {
          "internalType": "uint256",
          "name": "",
          "type": "uint256"
        }
      ],
      "name": "zombies",
      "outputs": [
        {
          "internalType": "string",
          "name": "name",
          "type": "string"
        },
        {
          "internalType": "uint256",
          "name": "dna",
          "type": "uint256"
        },
        {
          "internalType": "uint32",
          "name": "level",
          "type": "uint32"
        },
        {
          "internalType": "uint32",
          "name": "readyTime",
          "type": "uint32"
        },
        {
          "internalType": "uint16",
          "name": "winCount",
          "type": "uint16"
        },
        {
          "internalType": "uint16",
          "name": "lossCount",
          "type": "uint16"
        }
      ],
      "stateMutability": "view",
      "type": "function",
      "constant": true
    },
    {
      "inputs": [],
      "name": "withdraw",
      "outputs": [],
      "stateMutability": "nonpayable",
      "type": "function"
    },
    {
      "inputs": [
        {
          "internalType": "uint256",
          "name": "_fee",
          "type": "uint256"
        }
      ],
      "name": "setLevelUpFee",
      "outputs": [],
      "stateMutability": "nonpayable",
      "type": "function"
    },
    {
      "inputs": [
        {
          "internalType": "uint256",
          "name": "_zombieId",
          "type": "uint256"
        }
      ],
      "name": "levelUp",
      "outputs": [],
      "stateMutability": "payable",
      "type": "function",
      "payable": true
    },
    {
      "inputs": [
        {
          "internalType": "uint256",
          "name": "_zombieId",
          "type": "uint256"
        },
        {
          "internalType": "string",
          "name": "_newName",
          "type": "string"
        }
      ],
      "name": "changeName",
      "outputs": [],
      "stateMutability": "nonpayable",
      "type": "function"
    },
    {
      "inputs": [
        {
          "internalType": "uint256",
          "name": "_zombieId",
          "type": "uint256"
        },
        {
          "internalType": "uint256",
          "name": "_newDna",
          "type": "uint256"
        }
      ],
      "name": "changeDna",
      "outputs": [],
      "stateMutability": "nonpayable",
      "type": "function"
    },
    {
      "inputs": [
        {
          "internalType": "address",
          "name": "_owner",
          "type": "address"
        }
      ],
      "name": "getZombiesByOwner",
      "outputs": [
        {
          "internalType": "uint256[]",
          "name": "",
          "type": "uint256[]"
        }
      ],
      "stateMutability": "view",
      "type": "function",
      "constant": true
    }
  ],
  "bytecode": "0x60806040526010600155600154600a6200001a9190620002bc565b6002556201518060035566038d7ea4c680006008553480156200003c57600080fd5b506200005d620000516200006360201b60201c565b6200006b60201b60201c565b6200030d565b600033905090565b60008060009054906101000a900473ffffffffffffffffffffffffffffffffffffffff169050816000806101000a81548173ffffffffffffffffffffffffffffffffffffffff021916908373ffffffffffffffffffffffffffffffffffffffff1602179055508173ffffffffffffffffffffffffffffffffffffffff168173ffffffffffffffffffffffffffffffffffffffff167f8be0079c531659141344cd1fd0a4f28419497f9722a3daafe3b4186f6b6457e060405160405180910390a35050565b7f4e487b7100000000000000000000000000000000000000000000000000000000600052601160045260246000fd5b60008160011c9050919050565b6000808291508390505b6001851115620001bd578086048111156200019557620001946200012f565b5b6001851615620001a55780820291505b8081029050620001b5856200015e565b945062000175565b94509492505050565b600082620001d85760019050620002ab565b81620001e85760009050620002ab565b81600181146200020157600281146200020c5762000242565b6001915050620002ab565b60ff8411156200022157620002206200012f565b5b8360020a9150848211156200023b576200023a6200012f565b5b50620002ab565b5060208310610133831016604e8410600b84101617156200027c5782820a9050838111156200027657620002756200012f565b5b620002ab565b6200028b84848460016200016b565b92509050818404811115620002a557620002a46200012f565b5b81810290505b9392505050565b6000819050919050565b6000620002c982620002b2565b9150620002d683620002b2565b9250620003057fffffffffffffffffffffffffffffffffffffffffffffffffffffffffffffffff8484620001c6565b905092915050565b611e4e806200031d6000396000f3fe6080604052600436106100dd5760003560e01c80635faf28801161007f5780638da5cb5b116100595780638da5cb5b1461028c578063c39cbef1146102b7578063ccf670f8146102e0578063f2fde38b14610309576100dd565b80635faf288014610223578063715018a61461024c5780637bff0a0114610263576100dd565b80633ccfd60b116100bb5780633ccfd60b146101695780634412e10414610180578063528b7b8f146101bd5780635f4623f1146101fa576100dd565b80630ce90ec2146100e257806317a7f4cc146100fe5780632052465e14610127575b600080fd5b6100fc60048036038101906100f791906113ca565b610332565b005b34801561010a57600080fd5b50610125600480360381019061012091906113f7565b6103a7565b005b34801561013357600080fd5b5061014e600480360381019061014991906113ca565b6104d4565b6040516101609695949392919061151b565b60405180910390f35b34801561017557600080fd5b5061017e6105e4565b005b34801561018c57600080fd5b506101a760048036038101906101a291906115e1565b6106cd565b6040516101b491906116cc565b60405180910390f35b3480156101c957600080fd5b506101e460048036038101906101df91906113ca565b610820565b6040516101f191906116fd565b60405180910390f35b34801561020657600080fd5b50610221600480360381019061021c91906115e1565b610853565b005b34801561022f57600080fd5b5061024a600480360381019061024591906113f7565b610913565b005b34801561025857600080fd5b506102616109fb565b005b34801561026f57600080fd5b5061028a6004803603810190610285919061184d565b610a83565b005b34801561029857600080fd5b506102a1610b04565b6040516102ae91906116fd565b60405180910390f35b3480156102c357600080fd5b506102de60048036038101906102d99190611896565b610b2d565b005b3480156102ec57600080fd5b50610307600480360381019061030291906113ca565b610c25565b005b34801561031557600080fd5b50610330600480360381019061032b91906115e1565b610cab565b005b600854341461034057600080fd5b60048181548110610354576103536118f2565b5b9060005260206000209060030201600201600081819054906101000a900463ffffffff168092919061038590611950565b91906101000a81548163ffffffff021916908363ffffffff1602179055505050565b6000600760009054906101000a900473ffffffffffffffffffffffffffffffffffffffff1673ffffffffffffffffffffffffffffffffffffffff1663e98b7f4d836040518263ffffffff1660e01b8152600401610404919061197d565b6101406040518083038186803b15801561041d57600080fd5b505afa158015610431573d6000803e3d6000fd5b505050506040513d601f19601f8201168201806040525081019061045591906119e5565b909192939495969798509091929394959697509091929394959650909192939495509091929394509091929350909192509091509050809150506104cf83826040518060400160405280600581526020017f6b69747479000000000000000000000000000000000000000000000000000000815250610da3565b505050565b600481815481106104e457600080fd5b906000526020600020906003020160009150905080600001805461050790611af3565b80601f016020809104026020016040519081016040528092919081815260200182805461053390611af3565b80156105805780601f1061055557610100808354040283529160200191610580565b820191906000526020600020905b81548152906001019060200180831161056357829003601f168201915b5050505050908060010154908060020160009054906101000a900463ffffffff16908060020160049054906101000a900463ffffffff16908060020160089054906101000a900461ffff169080600201600a9054906101000a900461ffff16905086565b6105ec610f3c565b73ffffffffffffffffffffffffffffffffffffffff1661060a610b04565b73ffffffffffffffffffffffffffffffffffffffff1614610660576040517f08c379a000000000000000000000000000000000000000000000000000000000815260040161065790611b71565b60405180910390fd5b600061066a610b04565b90508073ffffffffffffffffffffffffffffffffffffffff166108fc3073ffffffffffffffffffffffffffffffffffffffff16319081150290604051600060405180830381858888f193505050501580156106c9573d6000803e3d6000fd5b5050565b60606000600660008473ffffffffffffffffffffffffffffffffffffffff1673ffffffffffffffffffffffffffffffffffffffff1681526020019081526020016000205467ffffffffffffffff81111561072a57610729611722565b5b6040519080825280602002602001820160405280156107585781602001602082028036833780820191505090505b5090506000805b600480549050811015610815578473ffffffffffffffffffffffffffffffffffffffff166005600083815260200190815260200160002060009054906101000a900473ffffffffffffffffffffffffffffffffffffffff1673ffffffffffffffffffffffffffffffffffffffff16141561080257808383815181106107e7576107e66118f2565b5b60200260200101818152505081806107fe90611b91565b9250505b808061080d90611b91565b91505061075f565b508192505050919050565b60056020528060005260406000206000915054906101000a900473ffffffffffffffffffffffffffffffffffffffff1681565b61085b610f3c565b73ffffffffffffffffffffffffffffffffffffffff16610879610b04565b73ffffffffffffffffffffffffffffffffffffffff16146108cf576040517f08c379a00000000000000000000000000000000000000000000000000000000081526004016108c690611b71565b60405180910390fd5b80600760006101000a81548173ffffffffffffffffffffffffffffffffffffffff021916908373ffffffffffffffffffffffffffffffffffffffff16021790555050565b601482816004828154811061092b5761092a6118f2565b5b906000526020600020906003020160020160009054906101000a900463ffffffff1663ffffffff16101561095e57600080fd5b836005600082815260200190815260200160002060009054906101000a900473ffffffffffffffffffffffffffffffffffffffff1673ffffffffffffffffffffffffffffffffffffffff163373ffffffffffffffffffffffffffffffffffffffff16146109ca57600080fd5b83600486815481106109df576109de6118f2565b5b9060005260206000209060030201600101819055505050505050565b610a03610f3c565b73ffffffffffffffffffffffffffffffffffffffff16610a21610b04565b73ffffffffffffffffffffffffffffffffffffffff1614610a77576040517f08c379a0000000000000000000000000000000000000000000000000000000008152600401610a6e90611b71565b60405180910390fd5b610a816000610f44565b565b6000600660003373ffffffffffffffffffffffffffffffffffffffff1673ffffffffffffffffffffffffffffffffffffffff1681526020019081526020016000205414610acf57600080fd5b6000610ada82611008565b9050606481610ae99190611c09565b81610af49190611c3a565b9050610b00828261104d565b5050565b60008060009054906101000a900473ffffffffffffffffffffffffffffffffffffffff16905090565b6002828160048281548110610b4557610b446118f2565b5b906000526020600020906003020160020160009054906101000a900463ffffffff1663ffffffff161015610b7857600080fd5b836005600082815260200190815260200160002060009054906101000a900473ffffffffffffffffffffffffffffffffffffffff1673ffffffffffffffffffffffffffffffffffffffff163373ffffffffffffffffffffffffffffffffffffffff1614610be457600080fd5b8360048681548110610bf957610bf86118f2565b5b90600052602060002090600302016000019080519060200190610c1d9291906112dd565b505050505050565b610c2d610f3c565b73ffffffffffffffffffffffffffffffffffffffff16610c4b610b04565b73ffffffffffffffffffffffffffffffffffffffff1614610ca1576040517f08c379a0000000000000000000000000000000000000000000000000000000008152600401610c9890611b71565b60405180910390fd5b8060088190555050565b610cb3610f3c565b73ffffffffffffffffffffffffffffffffffffffff16610cd1610b04565b73ffffffffffffffffffffffffffffffffffffffff1614610d27576040517f08c379a0000000000000000000000000000000000000000000000000000000008152600401610d1e90611b71565b60405180910390fd5b600073ffffffffffffffffffffffffffffffffffffffff168173ffffffffffffffffffffffffffffffffffffffff161415610d97576040517f08c379a0000000000000000000000000000000000000000000000000000000008152600401610d8e90611ce0565b60405180910390fd5b610da081610f44565b50565b826005600082815260200190815260200160002060009054906101000a900473ffffffffffffffffffffffffffffffffffffffff1673ffffffffffffffffffffffffffffffffffffffff163373ffffffffffffffffffffffffffffffffffffffff1614610e0f57600080fd5b600060048581548110610e2557610e246118f2565b5b90600052602060002090600302019050610e3e81611283565b610e4757600080fd5b60025484610e559190611c09565b935060006002858360010154610e6b9190611d00565b610e759190611d56565b90507f8d53323b21b9f304546f6d3e61cde865451064d614aa4912f395b755a9d8cad984604051602001610ea99190611dc3565b604051602081830303815290604052805190602001201415610eec576063606482610ed49190611c09565b82610edf9190611c3a565b610ee99190611d00565b90505b610f2b6040518060400160405280600681526020017f4e6f4e616d6500000000000000000000000000000000000000000000000000008152508261104d565b610f34826112aa565b505050505050565b600033905090565b60008060009054906101000a900473ffffffffffffffffffffffffffffffffffffffff169050816000806101000a81548173ffffffffffffffffffffffffffffffffffffffff021916908373ffffffffffffffffffffffffffffffffffffffff1602179055508173ffffffffffffffffffffffffffffffffffffffff168173ffffffffffffffffffffffffffffffffffffffff167f8be0079c531659141344cd1fd0a4f28419497f9722a3daafe3b4186f6b6457e060405160405180910390a35050565b6000808260405160200161101c9190611dc3565b6040516020818303038152906040528051906020012060001c9050600254816110459190611c09565b915050919050565b60046040518060c00160405280848152602001838152602001600163ffffffff168152602001600354426110819190611d00565b63ffffffff168152602001600061ffff168152602001600061ffff16815250908060018154018082558091505060019003906000526020600020906003020160009091909190915060008201518160000190805190602001906110e59291906112dd565b506020820151816001015560408201518160020160006101000a81548163ffffffff021916908363ffffffff16021790555060608201518160020160046101000a81548163ffffffff021916908363ffffffff16021790555060808201518160020160086101000a81548161ffff021916908361ffff16021790555060a082015181600201600a6101000a81548161ffff021916908361ffff16021790555050506000600160048054905061119a9190611c3a565b9050336005600083815260200190815260200160002060006101000a81548173ffffffffffffffffffffffffffffffffffffffff021916908373ffffffffffffffffffffffffffffffffffffffff160217905550600660003373ffffffffffffffffffffffffffffffffffffffff1673ffffffffffffffffffffffffffffffffffffffff168152602001908152602001600020600081548092919061123e90611b91565b91905055507f88f026aacbbecc90c18411df4b1185fd8d9be2470f1962f192bf84a27d0704b781848460405161127693929190611dda565b60405180910390a1505050565b6000428260020160049054906101000a900463ffffffff1663ffffffff1611159050919050565b600354426112b89190611d00565b8160020160046101000a81548163ffffffff021916908363ffffffff16021790555050565b8280546112e990611af3565b90600052602060002090601f01602090048101928261130b5760008555611352565b82601f1061132457805160ff1916838001178555611352565b82800160010185558215611352579182015b82811115611351578251825591602001919060010190611336565b5b50905061135f9190611363565b5090565b5b8082111561137c576000816000905550600101611364565b5090565b6000604051905090565b600080fd5b600080fd5b6000819050919050565b6113a781611394565b81146113b257600080fd5b50565b6000813590506113c48161139e565b92915050565b6000602082840312156113e0576113df61138a565b5b60006113ee848285016113b5565b91505092915050565b6000806040838503121561140e5761140d61138a565b5b600061141c858286016113b5565b925050602061142d858286016113b5565b9150509250929050565b600081519050919050565b600082825260208201905092915050565b60005b83811015611471578082015181840152602081019050611456565b83811115611480576000848401525b50505050565b6000601f19601f8301169050919050565b60006114a282611437565b6114ac8185611442565b93506114bc818560208601611453565b6114c581611486565b840191505092915050565b6114d981611394565b82525050565b600063ffffffff82169050919050565b6114f8816114df565b82525050565b600061ffff82169050919050565b611515816114fe565b82525050565b600060c08201905081810360008301526115358189611497565b905061154460208301886114d0565b61155160408301876114ef565b61155e60608301866114ef565b61156b608083018561150c565b61157860a083018461150c565b979650505050505050565b600073ffffffffffffffffffffffffffffffffffffffff82169050919050565b60006115ae82611583565b9050919050565b6115be816115a3565b81146115c957600080fd5b50565b6000813590506115db816115b5565b92915050565b6000602082840312156115f7576115f661138a565b5b6000611605848285016115cc565b91505092915050565b600081519050919050565b600082825260208201905092915050565b6000819050602082019050919050565b61164381611394565b82525050565b6000611655838361163a565b60208301905092915050565b6000602082019050919050565b60006116798261160e565b6116838185611619565b935061168e8361162a565b8060005b838110156116bf5781516116a68882611649565b97506116b183611661565b925050600181019050611692565b5085935050505092915050565b600060208201905081810360008301526116e6818461166e565b905092915050565b6116f7816115a3565b82525050565b600060208201905061171260008301846116ee565b92915050565b600080fd5b600080fd5b7f4e487b7100000000000000000000000000000000000000000000000000000000600052604160045260246000fd5b61175a82611486565b810181811067ffffffffffffffff8211171561177957611778611722565b5b80604052505050565b600061178c611380565b90506117988282611751565b919050565b600067ffffffffffffffff8211156117b8576117b7611722565b5b6117c182611486565b9050602081019050919050565b82818337600083830152505050565b60006117f06117eb8461179d565b611782565b90508281526020810184848401111561180c5761180b61171d565b5b6118178482856117ce565b509392505050565b600082601f83011261183457611833611718565b5b81356118448482602086016117dd565b91505092915050565b6000602082840312156118635761186261138a565b5b600082013567ffffffffffffffff8111156118815761188061138f565b5b61188d8482850161181f565b91505092915050565b600080604083850312156118ad576118ac61138a565b5b60006118bb858286016113b5565b925050602083013567ffffffffffffffff8111156118dc576118db61138f565b5b6118e88582860161181f565b9150509250929050565b7f4e487b7100000000000000000000000000000000000000000000000000000000600052603260045260246000fd5b7f4e487b7100000000000000000000000000000000000000000000000000000000600052601160045260246000fd5b600061195b826114df565b915063ffffffff82141561197257611971611921565b5b600182019050919050565b600060208201905061199260008301846114d0565b92915050565b60008115159050919050565b6119ad81611998565b81146119b857600080fd5b50565b6000815190506119ca816119a4565b92915050565b6000815190506119df8161139e565b92915050565b6000806000806000806000806000806101408b8d031215611a0957611a0861138a565b5b6000611a178d828e016119bb565b9a50506020611a288d828e016119bb565b9950506040611a398d828e016119d0565b9850506060611a4a8d828e016119d0565b9750506080611a5b8d828e016119d0565b96505060a0611a6c8d828e016119d0565b95505060c0611a7d8d828e016119d0565b94505060e0611a8e8d828e016119d0565b935050610100611aa08d828e016119d0565b925050610120611ab28d828e016119d0565b9150509295989b9194979a5092959850565b7f4e487b7100000000000000000000000000000000000000000000000000000000600052602260045260246000fd5b60006002820490506001821680611b0b57607f821691505b60208210811415611b1f57611b1e611ac4565b5b50919050565b7f4f776e61626c653a2063616c6c6572206973206e6f7420746865206f776e6572600082015250565b6000611b5b602083611442565b9150611b6682611b25565b602082019050919050565b60006020820190508181036000830152611b8a81611b4e565b9050919050565b6000611b9c82611394565b91507fffffffffffffffffffffffffffffffffffffffffffffffffffffffffffffffff821415611bcf57611bce611921565b5b600182019050919050565b7f4e487b7100000000000000000000000000000000000000000000000000000000600052601260045260246000fd5b6000611c1482611394565b9150611c1f83611394565b925082611c2f57611c2e611bda565b5b828206905092915050565b6000611c4582611394565b9150611c5083611394565b925082821015611c6357611c62611921565b5b828203905092915050565b7f4f776e61626c653a206e6577206f776e657220697320746865207a65726f206160008201527f6464726573730000000000000000000000000000000000000000000000000000602082015250565b6000611cca602683611442565b9150611cd582611c6e565b604082019050919050565b60006020820190508181036000830152611cf981611cbd565b9050919050565b6000611d0b82611394565b9150611d1683611394565b9250827fffffffffffffffffffffffffffffffffffffffffffffffffffffffffffffffff03821115611d4b57611d4a611921565b5b828201905092915050565b6000611d6182611394565b9150611d6c83611394565b925082611d7c57611d7b611bda565b5b828204905092915050565b600081905092915050565b6000611d9d82611437565b611da78185611d87565b9350611db7818560208601611453565b80840191505092915050565b6000611dcf8284611d92565b915081905092915050565b6000606082019050611def60008301866114d0565b8181036020830152611e018185611497565b9050611e1060408301846114d0565b94935050505056fea2646970667358221220b628de2a4ee5d208736927c839ea2b28e092a673c80baf6f424e7adc7315a6ed64736f6c63430008090033",
  "immutableReferences": {},
  "source": "pragma solidity ^0.8.9;\n// SPDX-License-Identifier: MIT\n\nimport \"./zombiefeeding.sol\";\n\ncontract ZombieHelper is ZombieFeeding {\n\n  uint levelUpFee = 0.001 ether;\n\n  modifier aboveLevel(uint _level, uint _zombieId) {\n    require(zombies[_zombieId].level >= _level);\n    _;\n  }\n\n  function withdraw() external onlyOwner {\n   address payable owner = payable (owner());\n   owner.transfer((address(this)).balance);\n   //payable(address(this)).balance;\n   //transfer(this.balance);\n  }\n\n  function setLevelUpFee(uint _fee) external onlyOwner {\n    levelUpFee = _fee;\n  }\n\n  function levelUp(uint _zombieId) external payable {\n    require(msg.value == levelUpFee);\n    zombies[_zombieId].level++;\n  }\n\n  function changeName(uint _zombieId, string memory _newName) external aboveLevel(2, _zombieId) onlyOwnerOf(_zombieId) {\n    zombies[_zombieId].name = _newName;\n  }\n\n  function changeDna(uint _zombieId, uint _newDna) external aboveLevel(20, _zombieId) onlyOwnerOf(_zombieId) {\n    zombies[_zombieId].dna = _newDna;\n  }\n\n  function getZombiesByOwner(address _owner) external view returns(uint[] memory) {\n    uint[] memory result = new uint[](ownerZombieCount[_owner]);\n    uint counter = 0;\n    for (uint i = 0; i < zombies.length; i++) {\n      if (zombieToOwner[i] == _owner) {\n        result[counter] = i;\n        counter++;\n      }\n    }\n    return result;\n  }\n\n}\n",
  "sourcePath": "/home/nacer/TestTruffle/contracts/zombiehelper.sol",
  "compiler": {
    "name": "solc",
    "version": "0.8.9+commit.e5eed63a.Emscripten.clang"
  },
  "schemaVersion": "3.4.3",
  "updatedAt": "2021-10-15T10:02:06.004Z",
  "networkType": "ethereum",
  "devdoc": {
    "kind": "dev",
    "methods": {
      "owner()": {
        "details": "Returns the address of the current owner."
      },
      "renounceOwnership()": {
        "details": "Leaves the contract without owner. It will not be possible to call `onlyOwner` functions anymore. Can only be called by the current owner. NOTE: Renouncing ownership will leave the contract without an owner, thereby removing any functionality that is only available to the owner."
      },
      "transferOwnership(address)": {
        "details": "Transfers ownership of the contract to a new account (`newOwner`). Can only be called by the current owner."
      }
    },
    "version": 1
  },
  "userdoc": {
    "kind": "user",
    "methods": {},
    "version": 1
  }
}