{
  "contractName": "ZombieBattle",
  "abi": [
    {
      "anonymous": false,
      "inputs": [
        {
          "indexed": false,
          "internalType": "uint256",
          "name": "zombieId",
          "type": "uint256"
        },
        {
          "indexed": false,
          "internalType": "string",
          "name": "name",
          "type": "string"
        },
        {
          "indexed": false,
          "internalType": "uint256",
          "name": "dna",
          "type": "uint256"
        }
      ],
      "name": "NewZombie",
      "type": "event"
    },
    {
      "anonymous": false,
      "inputs": [
        {
          "indexed": true,
          "internalType": "address",
          "name": "previousOwner",
          "type": "address"
        },
        {
          "indexed": true,
          "internalType": "address",
          "name": "newOwner",
          "type": "address"
        }
      ],
      "name": "OwnershipTransferred",
      "type": "event"
    },
    {
      "inputs": [
        {
          "internalType": "uint256",
          "name": "_zombieId",
          "type": "uint256"
        },
        {
          "internalType": "uint256",
          "name": "_newDna",
          "type": "uint256"
        }
      ],
      "name": "changeDna",
      "outputs": [],
      "stateMutability": "nonpayable",
      "type": "function"
    },
    {
      "inputs": [
        {
          "internalType": "uint256",
          "name": "_zombieId",
          "type": "uint256"
        },
        {
          "internalType": "string",
          "name": "_newName",
          "type": "string"
        }
      ],
      "name": "changeName",
      "outputs": [],
      "stateMutability": "nonpayable",
      "type": "function"
    },
    {
      "inputs": [
        {
          "internalType": "string",
          "name": "_name",
          "type": "string"
        }
      ],
      "name": "createRandomZombie",
      "outputs": [],
      "stateMutability": "nonpayable",
      "type": "function"
    },
    {
      "inputs": [
        {
          "internalType": "uint256",
          "name": "_zombieId",
          "type": "uint256"
        },
        {
          "internalType": "uint256",
          "name": "_kittyId",
          "type": "uint256"
        }
      ],
      "name": "feedOnKitty",
      "outputs": [],
      "stateMutability": "nonpayable",
      "type": "function"
    },
    {
      "inputs": [
        {
          "internalType": "address",
          "name": "_owner",
          "type": "address"
        }
      ],
      "name": "getZombiesByOwner",
      "outputs": [
        {
          "internalType": "uint256[]",
          "name": "",
          "type": "uint256[]"
        }
      ],
      "stateMutability": "view",
      "type": "function",
      "constant": true
    },
    {
      "inputs": [
        {
          "internalType": "uint256",
          "name": "_zombieId",
          "type": "uint256"
        }
      ],
      "name": "levelUp",
      "outputs": [],
      "stateMutability": "payable",
      "type": "function",
      "payable": true
    },
    {
      "inputs": [],
      "name": "owner",
      "outputs": [
        {
          "internalType": "address",
          "name": "",
          "type": "address"
        }
      ],
      "stateMutability": "view",
      "type": "function",
      "constant": true
    },
    {
      "inputs": [],
      "name": "renounceOwnership",
      "outputs": [],
      "stateMutability": "nonpayable",
      "type": "function"
    },
    {
      "inputs": [
        {
          "internalType": "address",
          "name": "_address",
          "type": "address"
        }
      ],
      "name": "setKittyContractAddress",
      "outputs": [],
      "stateMutability": "nonpayable",
      "type": "function"
    },
    {
      "inputs": [
        {
          "internalType": "uint256",
          "name": "_fee",
          "type": "uint256"
        }
      ],
      "name": "setLevelUpFee",
      "outputs": [],
      "stateMutability": "nonpayable",
      "type": "function"
    },
    {
      "inputs": [
        {
          "internalType": "address",
          "name": "newOwner",
          "type": "address"
        }
      ],
      "name": "transferOwnership",
      "outputs": [],
      "stateMutability": "nonpayable",
      "type": "function"
    },
    {
      "inputs": [],
      "name": "withdraw",
      "outputs": [],
      "stateMutability": "nonpayable",
      "type": "function"
    },
    {
      "inputs": [
        {
          "internalType": "uint256",
          "name": "",
          "type": "uint256"
        }
      ],
      "name": "zombieToOwner",
      "outputs": [
        {
          "internalType": "address",
          "name": "",
          "type": "address"
        }
      ],
      "stateMutability": "view",
      "type": "function",
      "constant": true
    },
    {
      "inputs": [
        {
          "internalType": "uint256",
          "name": "",
          "type": "uint256"
        }
      ],
      "name": "zombies",
      "outputs": [
        {
          "internalType": "string",
          "name": "name",
          "type": "string"
        },
        {
          "internalType": "uint256",
          "name": "dna",
          "type": "uint256"
        },
        {
          "internalType": "uint32",
          "name": "level",
          "type": "uint32"
        },
        {
          "internalType": "uint32",
          "name": "readyTime",
          "type": "uint32"
        },
        {
          "internalType": "uint16",
          "name": "winCount",
          "type": "uint16"
        },
        {
          "internalType": "uint16",
          "name": "lossCount",
          "type": "uint16"
        }
      ],
      "stateMutability": "view",
      "type": "function",
      "constant": true
    },
    {
      "inputs": [
        {
          "internalType": "uint256",
          "name": "_zombieId",
          "type": "uint256"
        },
        {
          "internalType": "uint256",
          "name": "_targetId",
          "type": "uint256"
        }
      ],
      "name": "attack",
      "outputs": [],
      "stateMutability": "nonpayable",
      "type": "function"
    }
  ],
  "bytecode": "0x60806040526010600155600154600a6200001a9190620002c6565b6002556201518060035566038d7ea4c6800060085560006009556046600a553480156200004657600080fd5b50620000676200005b6200006d60201b60201c565b6200007560201b60201c565b62000317565b600033905090565b60008060009054906101000a900473ffffffffffffffffffffffffffffffffffffffff169050816000806101000a81548173ffffffffffffffffffffffffffffffffffffffff021916908373ffffffffffffffffffffffffffffffffffffffff1602179055508173ffffffffffffffffffffffffffffffffffffffff168173ffffffffffffffffffffffffffffffffffffffff167f8be0079c531659141344cd1fd0a4f28419497f9722a3daafe3b4186f6b6457e060405160405180910390a35050565b7f4e487b7100000000000000000000000000000000000000000000000000000000600052601160045260246000fd5b60008160011c9050919050565b6000808291508390505b6001851115620001c7578086048111156200019f576200019e62000139565b5b6001851615620001af5780820291505b8081029050620001bf8562000168565b94506200017f565b94509492505050565b600082620001e25760019050620002b5565b81620001f25760009050620002b5565b81600181146200020b576002811462000216576200024c565b6001915050620002b5565b60ff8411156200022b576200022a62000139565b5b8360020a91508482111562000245576200024462000139565b5b50620002b5565b5060208310610133831016604e8410600b8410161715620002865782820a90508381111562000280576200027f62000139565b5b620002b5565b62000295848484600162000175565b92509050818404811115620002af57620002ae62000139565b5b81810290505b9392505050565b6000819050919050565b6000620002d382620002bc565b9150620002e083620002bc565b92506200030f7fffffffffffffffffffffffffffffffffffffffffffffffffffffffffffffffff8484620001d0565b905092915050565b61221080620003276000396000f3fe6080604052600436106100e85760003560e01c80635faf28801161008a578063c39cbef111610059578063c39cbef1146102c2578063ccf670f8146102eb578063e1fa763814610314578063f2fde38b1461033d576100e8565b80635faf28801461022e578063715018a6146102575780637bff0a011461026e5780638da5cb5b14610297576100e8565b80633ccfd60b116100c65780633ccfd60b146101745780634412e1041461018b578063528b7b8f146101c85780635f4623f114610205576100e8565b80630ce90ec2146100ed57806317a7f4cc146101095780632052465e14610132575b600080fd5b610107600480360381019061010291906116bb565b610366565b005b34801561011557600080fd5b50610130600480360381019061012b91906116e8565b6103db565b005b34801561013e57600080fd5b50610159600480360381019061015491906116bb565b610508565b60405161016b9695949392919061180c565b60405180910390f35b34801561018057600080fd5b50610189610618565b005b34801561019757600080fd5b506101b260048036038101906101ad91906118d2565b610701565b6040516101bf91906119bd565b60405180910390f35b3480156101d457600080fd5b506101ef60048036038101906101ea91906116bb565b610854565b6040516101fc91906119ee565b60405180910390f35b34801561021157600080fd5b5061022c600480360381019061022791906118d2565b610887565b005b34801561023a57600080fd5b50610255600480360381019061025091906116e8565b610947565b005b34801561026357600080fd5b5061026c610a2f565b005b34801561027a57600080fd5b5061029560048036038101906102909190611b3e565b610ab7565b005b3480156102a357600080fd5b506102ac610b38565b6040516102b991906119ee565b60405180910390f35b3480156102ce57600080fd5b506102e960048036038101906102e49190611b87565b610b61565b005b3480156102f757600080fd5b50610312600480360381019061030d91906116bb565b610c59565b005b34801561032057600080fd5b5061033b600480360381019061033691906116e8565b610cdf565b005b34801561034957600080fd5b50610364600480360381019061035f91906118d2565b610f40565b005b600854341461037457600080fd5b6004818154811061038857610387611be3565b5b9060005260206000209060030201600201600081819054906101000a900463ffffffff16809291906103b990611c41565b91906101000a81548163ffffffff021916908363ffffffff1602179055505050565b6000600760009054906101000a900473ffffffffffffffffffffffffffffffffffffffff1673ffffffffffffffffffffffffffffffffffffffff1663e98b7f4d836040518263ffffffff1660e01b81526004016104389190611c6e565b6101406040518083038186803b15801561045157600080fd5b505afa158015610465573d6000803e3d6000fd5b505050506040513d601f19601f820116820180604052508101906104899190611cd6565b9091929394959697985090919293949596975090919293949596509091929394955090919293945090919293509091925090915090508091505061050383826040518060400160405280600581526020017f6b69747479000000000000000000000000000000000000000000000000000000815250611038565b505050565b6004818154811061051857600080fd5b906000526020600020906003020160009150905080600001805461053b90611de4565b80601f016020809104026020016040519081016040528092919081815260200182805461056790611de4565b80156105b45780601f10610589576101008083540402835291602001916105b4565b820191906000526020600020905b81548152906001019060200180831161059757829003601f168201915b5050505050908060010154908060020160009054906101000a900463ffffffff16908060020160049054906101000a900463ffffffff16908060020160089054906101000a900461ffff169080600201600a9054906101000a900461ffff16905086565b6106206111d1565b73ffffffffffffffffffffffffffffffffffffffff1661063e610b38565b73ffffffffffffffffffffffffffffffffffffffff1614610694576040517f08c379a000000000000000000000000000000000000000000000000000000000815260040161068b90611e62565b60405180910390fd5b600061069e610b38565b90508073ffffffffffffffffffffffffffffffffffffffff166108fc3073ffffffffffffffffffffffffffffffffffffffff16319081150290604051600060405180830381858888f193505050501580156106fd573d6000803e3d6000fd5b5050565b60606000600660008473ffffffffffffffffffffffffffffffffffffffff1673ffffffffffffffffffffffffffffffffffffffff1681526020019081526020016000205467ffffffffffffffff81111561075e5761075d611a13565b5b60405190808252806020026020018201604052801561078c5781602001602082028036833780820191505090505b5090506000805b600480549050811015610849578473ffffffffffffffffffffffffffffffffffffffff166005600083815260200190815260200160002060009054906101000a900473ffffffffffffffffffffffffffffffffffffffff1673ffffffffffffffffffffffffffffffffffffffff161415610836578083838151811061081b5761081a611be3565b5b602002602001018181525050818061083290611e82565b9250505b808061084190611e82565b915050610793565b508192505050919050565b60056020528060005260406000206000915054906101000a900473ffffffffffffffffffffffffffffffffffffffff1681565b61088f6111d1565b73ffffffffffffffffffffffffffffffffffffffff166108ad610b38565b73ffffffffffffffffffffffffffffffffffffffff1614610903576040517f08c379a00000000000000000000000000000000000000000000000000000000081526004016108fa90611e62565b60405180910390fd5b80600760006101000a81548173ffffffffffffffffffffffffffffffffffffffff021916908373ffffffffffffffffffffffffffffffffffffffff16021790555050565b601482816004828154811061095f5761095e611be3565b5b906000526020600020906003020160020160009054906101000a900463ffffffff1663ffffffff16101561099257600080fd5b836005600082815260200190815260200160002060009054906101000a900473ffffffffffffffffffffffffffffffffffffffff1673ffffffffffffffffffffffffffffffffffffffff163373ffffffffffffffffffffffffffffffffffffffff16146109fe57600080fd5b8360048681548110610a1357610a12611be3565b5b9060005260206000209060030201600101819055505050505050565b610a376111d1565b73ffffffffffffffffffffffffffffffffffffffff16610a55610b38565b73ffffffffffffffffffffffffffffffffffffffff1614610aab576040517f08c379a0000000000000000000000000000000000000000000000000000000008152600401610aa290611e62565b60405180910390fd5b610ab560006111d9565b565b6000600660003373ffffffffffffffffffffffffffffffffffffffff1673ffffffffffffffffffffffffffffffffffffffff1681526020019081526020016000205414610b0357600080fd5b6000610b0e8261129d565b9050606481610b1d9190611efa565b81610b289190611f2b565b9050610b3482826112e2565b5050565b60008060009054906101000a900473ffffffffffffffffffffffffffffffffffffffff16905090565b6002828160048281548110610b7957610b78611be3565b5b906000526020600020906003020160020160009054906101000a900463ffffffff1663ffffffff161015610bac57600080fd5b836005600082815260200190815260200160002060009054906101000a900473ffffffffffffffffffffffffffffffffffffffff1673ffffffffffffffffffffffffffffffffffffffff163373ffffffffffffffffffffffffffffffffffffffff1614610c1857600080fd5b8360048681548110610c2d57610c2c611be3565b5b90600052602060002090600302016000019080519060200190610c519291906115ce565b505050505050565b610c616111d1565b73ffffffffffffffffffffffffffffffffffffffff16610c7f610b38565b73ffffffffffffffffffffffffffffffffffffffff1614610cd5576040517f08c379a0000000000000000000000000000000000000000000000000000000008152600401610ccc90611e62565b60405180910390fd5b8060088190555050565b816005600082815260200190815260200160002060009054906101000a900473ffffffffffffffffffffffffffffffffffffffff1673ffffffffffffffffffffffffffffffffffffffff163373ffffffffffffffffffffffffffffffffffffffff1614610d4b57600080fd5b600060048481548110610d6157610d60611be3565b5b90600052602060002090600302019050600060048481548110610d8757610d86611be3565b5b906000526020600020906003020190506000610da36064611518565b9050600a548111610eb45782600201600881819054906101000a900461ffff1680929190610dd090611f5f565b91906101000a81548161ffff021916908361ffff1602179055505082600201600081819054906101000a900463ffffffff1680929190610e0f90611c41565b91906101000a81548163ffffffff021916908363ffffffff1602179055505081600201600a81819054906101000a900461ffff1680929190610e5090611f5f565b91906101000a81548161ffff021916908361ffff16021790555050610eaf8683600101546040518060400160405280600681526020017f7a6f6d6269650000000000000000000000000000000000000000000000000000815250611038565b610f38565b82600201600a81819054906101000a900461ffff1680929190610ed690611f5f565b91906101000a81548161ffff021916908361ffff1602179055505081600201600881819054906101000a900461ffff1680929190610f1390611f5f565b91906101000a81548161ffff021916908361ffff16021790555050610f3783611574565b5b505050505050565b610f486111d1565b73ffffffffffffffffffffffffffffffffffffffff16610f66610b38565b73ffffffffffffffffffffffffffffffffffffffff1614610fbc576040517f08c379a0000000000000000000000000000000000000000000000000000000008152600401610fb390611e62565b60405180910390fd5b600073ffffffffffffffffffffffffffffffffffffffff168173ffffffffffffffffffffffffffffffffffffffff16141561102c576040517f08c379a000000000000000000000000000000000000000000000000000000000815260040161102390611ffc565b60405180910390fd5b611035816111d9565b50565b826005600082815260200190815260200160002060009054906101000a900473ffffffffffffffffffffffffffffffffffffffff1673ffffffffffffffffffffffffffffffffffffffff163373ffffffffffffffffffffffffffffffffffffffff16146110a457600080fd5b6000600485815481106110ba576110b9611be3565b5b906000526020600020906003020190506110d3816115a7565b6110dc57600080fd5b600254846110ea9190611efa565b935060006002858360010154611100919061201c565b61110a9190612072565b90507f8d53323b21b9f304546f6d3e61cde865451064d614aa4912f395b755a9d8cad98460405160200161113e91906120df565b6040516020818303038152906040528051906020012014156111815760636064826111699190611efa565b826111749190611f2b565b61117e919061201c565b90505b6111c06040518060400160405280600681526020017f4e6f4e616d650000000000000000000000000000000000000000000000000000815250826112e2565b6111c982611574565b505050505050565b600033905090565b60008060009054906101000a900473ffffffffffffffffffffffffffffffffffffffff169050816000806101000a81548173ffffffffffffffffffffffffffffffffffffffff021916908373ffffffffffffffffffffffffffffffffffffffff1602179055508173ffffffffffffffffffffffffffffffffffffffff168173ffffffffffffffffffffffffffffffffffffffff167f8be0079c531659141344cd1fd0a4f28419497f9722a3daafe3b4186f6b6457e060405160405180910390a35050565b600080826040516020016112b191906120df565b6040516020818303038152906040528051906020012060001c9050600254816112da9190611efa565b915050919050565b60046040518060c00160405280848152602001838152602001600163ffffffff16815260200160035442611316919061201c565b63ffffffff168152602001600061ffff168152602001600061ffff168152509080600181540180825580915050600190039060005260206000209060030201600090919091909150600082015181600001908051906020019061137a9291906115ce565b506020820151816001015560408201518160020160006101000a81548163ffffffff021916908363ffffffff16021790555060608201518160020160046101000a81548163ffffffff021916908363ffffffff16021790555060808201518160020160086101000a81548161ffff021916908361ffff16021790555060a082015181600201600a6101000a81548161ffff021916908361ffff16021790555050506000600160048054905061142f9190611f2b565b9050336005600083815260200190815260200160002060006101000a81548173ffffffffffffffffffffffffffffffffffffffff021916908373ffffffffffffffffffffffffffffffffffffffff160217905550600660003373ffffffffffffffffffffffffffffffffffffffff1673ffffffffffffffffffffffffffffffffffffffff16815260200190815260200160002060008154809291906114d390611e82565b91905055507f88f026aacbbecc90c18411df4b1185fd8d9be2470f1962f192bf84a27d0704b781848460405161150b939291906120f6565b60405180910390a1505050565b60006009600081548092919061152d90611e82565b919050555081423360095460405160200161154a9392919061219d565b6040516020818303038152906040528051906020012060001c61156d9190611efa565b9050919050565b60035442611582919061201c565b8160020160046101000a81548163ffffffff021916908363ffffffff16021790555050565b6000428260020160049054906101000a900463ffffffff1663ffffffff1611159050919050565b8280546115da90611de4565b90600052602060002090601f0160209004810192826115fc5760008555611643565b82601f1061161557805160ff1916838001178555611643565b82800160010185558215611643579182015b82811115611642578251825591602001919060010190611627565b5b5090506116509190611654565b5090565b5b8082111561166d576000816000905550600101611655565b5090565b6000604051905090565b600080fd5b600080fd5b6000819050919050565b61169881611685565b81146116a357600080fd5b50565b6000813590506116b58161168f565b92915050565b6000602082840312156116d1576116d061167b565b5b60006116df848285016116a6565b91505092915050565b600080604083850312156116ff576116fe61167b565b5b600061170d858286016116a6565b925050602061171e858286016116a6565b9150509250929050565b600081519050919050565b600082825260208201905092915050565b60005b83811015611762578082015181840152602081019050611747565b83811115611771576000848401525b50505050565b6000601f19601f8301169050919050565b600061179382611728565b61179d8185611733565b93506117ad818560208601611744565b6117b681611777565b840191505092915050565b6117ca81611685565b82525050565b600063ffffffff82169050919050565b6117e9816117d0565b82525050565b600061ffff82169050919050565b611806816117ef565b82525050565b600060c08201905081810360008301526118268189611788565b905061183560208301886117c1565b61184260408301876117e0565b61184f60608301866117e0565b61185c60808301856117fd565b61186960a08301846117fd565b979650505050505050565b600073ffffffffffffffffffffffffffffffffffffffff82169050919050565b600061189f82611874565b9050919050565b6118af81611894565b81146118ba57600080fd5b50565b6000813590506118cc816118a6565b92915050565b6000602082840312156118e8576118e761167b565b5b60006118f6848285016118bd565b91505092915050565b600081519050919050565b600082825260208201905092915050565b6000819050602082019050919050565b61193481611685565b82525050565b6000611946838361192b565b60208301905092915050565b6000602082019050919050565b600061196a826118ff565b611974818561190a565b935061197f8361191b565b8060005b838110156119b0578151611997888261193a565b97506119a283611952565b925050600181019050611983565b5085935050505092915050565b600060208201905081810360008301526119d7818461195f565b905092915050565b6119e881611894565b82525050565b6000602082019050611a0360008301846119df565b92915050565b600080fd5b600080fd5b7f4e487b7100000000000000000000000000000000000000000000000000000000600052604160045260246000fd5b611a4b82611777565b810181811067ffffffffffffffff82111715611a6a57611a69611a13565b5b80604052505050565b6000611a7d611671565b9050611a898282611a42565b919050565b600067ffffffffffffffff821115611aa957611aa8611a13565b5b611ab282611777565b9050602081019050919050565b82818337600083830152505050565b6000611ae1611adc84611a8e565b611a73565b905082815260208101848484011115611afd57611afc611a0e565b5b611b08848285611abf565b509392505050565b600082601f830112611b2557611b24611a09565b5b8135611b35848260208601611ace565b91505092915050565b600060208284031215611b5457611b5361167b565b5b600082013567ffffffffffffffff811115611b7257611b71611680565b5b611b7e84828501611b10565b91505092915050565b60008060408385031215611b9e57611b9d61167b565b5b6000611bac858286016116a6565b925050602083013567ffffffffffffffff811115611bcd57611bcc611680565b5b611bd985828601611b10565b9150509250929050565b7f4e487b7100000000000000000000000000000000000000000000000000000000600052603260045260246000fd5b7f4e487b7100000000000000000000000000000000000000000000000000000000600052601160045260246000fd5b6000611c4c826117d0565b915063ffffffff821415611c6357611c62611c12565b5b600182019050919050565b6000602082019050611c8360008301846117c1565b92915050565b60008115159050919050565b611c9e81611c89565b8114611ca957600080fd5b50565b600081519050611cbb81611c95565b92915050565b600081519050611cd08161168f565b92915050565b6000806000806000806000806000806101408b8d031215611cfa57611cf961167b565b5b6000611d088d828e01611cac565b9a50506020611d198d828e01611cac565b9950506040611d2a8d828e01611cc1565b9850506060611d3b8d828e01611cc1565b9750506080611d4c8d828e01611cc1565b96505060a0611d5d8d828e01611cc1565b95505060c0611d6e8d828e01611cc1565b94505060e0611d7f8d828e01611cc1565b935050610100611d918d828e01611cc1565b925050610120611da38d828e01611cc1565b9150509295989b9194979a5092959850565b7f4e487b7100000000000000000000000000000000000000000000000000000000600052602260045260246000fd5b60006002820490506001821680611dfc57607f821691505b60208210811415611e1057611e0f611db5565b5b50919050565b7f4f776e61626c653a2063616c6c6572206973206e6f7420746865206f776e6572600082015250565b6000611e4c602083611733565b9150611e5782611e16565b602082019050919050565b60006020820190508181036000830152611e7b81611e3f565b9050919050565b6000611e8d82611685565b91507fffffffffffffffffffffffffffffffffffffffffffffffffffffffffffffffff821415611ec057611ebf611c12565b5b600182019050919050565b7f4e487b7100000000000000000000000000000000000000000000000000000000600052601260045260246000fd5b6000611f0582611685565b9150611f1083611685565b925082611f2057611f1f611ecb565b5b828206905092915050565b6000611f3682611685565b9150611f4183611685565b925082821015611f5457611f53611c12565b5b828203905092915050565b6000611f6a826117ef565b915061ffff821415611f7f57611f7e611c12565b5b600182019050919050565b7f4f776e61626c653a206e6577206f776e657220697320746865207a65726f206160008201527f6464726573730000000000000000000000000000000000000000000000000000602082015250565b6000611fe6602683611733565b9150611ff182611f8a565b604082019050919050565b6000602082019050818103600083015261201581611fd9565b9050919050565b600061202782611685565b915061203283611685565b9250827fffffffffffffffffffffffffffffffffffffffffffffffffffffffffffffffff0382111561206757612066611c12565b5b828201905092915050565b600061207d82611685565b915061208883611685565b92508261209857612097611ecb565b5b828204905092915050565b600081905092915050565b60006120b982611728565b6120c381856120a3565b93506120d3818560208601611744565b80840191505092915050565b60006120eb82846120ae565b915081905092915050565b600060608201905061210b60008301866117c1565b818103602083015261211d8185611788565b905061212c60408301846117c1565b949350505050565b6000819050919050565b61214f61214a82611685565b612134565b82525050565b60008160601b9050919050565b600061216d82612155565b9050919050565b600061217f82612162565b9050919050565b61219761219282611894565b612174565b82525050565b60006121a9828661213e565b6020820191506121b98285612186565b6014820191506121c9828461213e565b60208201915081905094935050505056fea26469706673582212209f7fcca04b020af5c273f449d072e8e43ea4c8990d55602e4a3010e3932be59964736f6c63430008090033",
  "immutableReferences": {},
  "source": "pragma solidity ^0.8.9;\n// SPDX-License-Identifier: MIT\n\nimport \"./zombiehelper.sol\";\n\ncontract ZombieBattle is ZombieHelper {\n  uint randNonce = 0;\n  uint attackVictoryProbability = 70;\n\n  function randMod(uint _modulus) internal returns(uint) {\n    randNonce++;\n    return uint(keccak256(abi.encodePacked(block.timestamp, msg.sender, randNonce))) % _modulus;\n  }\n\n  function attack(uint _zombieId, uint _targetId) external onlyOwnerOf(_zombieId) {\n    Zombie storage myZombie = zombies[_zombieId];\n    Zombie storage enemyZombie = zombies[_targetId];\n    uint rand = randMod(100);\n    if (rand <= attackVictoryProbability) {\n      myZombie.winCount++;\n      myZombie.level++;\n      enemyZombie.lossCount++;\n      feedAndMultiply(_zombieId, enemyZombie.dna, \"zombie\");\n    } else {\n      myZombie.lossCount++;\n      enemyZombie.winCount++;\n      _triggerCooldown(myZombie);\n    }\n  }\n}\n",
  "sourcePath": "/home/nacer/TestTruffle/contracts/zombieattack.sol",
  "compiler": {
    "name": "solc",
    "version": "0.8.9+commit.e5eed63a.Emscripten.clang"
  },
  "schemaVersion": "3.4.3",
  "updatedAt": "2021-10-15T10:02:05.746Z",
  "networkType": "ethereum",
  "devdoc": {
    "kind": "dev",
    "methods": {
      "owner()": {
        "details": "Returns the address of the current owner."
      },
      "renounceOwnership()": {
        "details": "Leaves the contract without owner. It will not be possible to call `onlyOwner` functions anymore. Can only be called by the current owner. NOTE: Renouncing ownership will leave the contract without an owner, thereby removing any functionality that is only available to the owner."
      },
      "transferOwnership(address)": {
        "details": "Transfers ownership of the contract to a new account (`newOwner`). Can only be called by the current owner."
      }
    },
    "version": 1
  },
  "userdoc": {
    "kind": "user",
    "methods": {},
    "version": 1
  }
}